:020000040000FA
:0600000079EF40F0120050
:020006001200E6
:0600080055EF3EF012006E
:02000E000100EF
:0400100000000000EC
:06001800E3EF3DF01200D1
:02001E001000D0
:10002000F585000000020000C00000003D850000D2
:1000300000030000B8000000AD84000000050000CF
:10004000900000001D8400000004000090000000EB
:10005000E98300004C0F000034000000EE82000035
:1000600000010000FB000000A2820000000F000061
:100070004C0000009A820000B80300000800000055
:100080003C820000900500005E000000C08100007E
:10009000800000007C000000D97E0000FF0100000D
:1000A0000100000010000000FB010000040000003F
:1000B0005F81000090040000610000004A810000A0
:1000C000E0020000150000002A810000C0020000CC
:1000D000200000000E000000FB04000002000000F1
:1000E00094C0E6FFE66A9BEC3DF0E552E55293C012
:1000F000E6FF010EE66E9BEC3DF0E552E55292C044
:10010000E6FF020EE66E9BEC3DF0E552E55295C02F
:10011000E6FF030EE66E9BEC3DF0E552E55296C01D
:10012000E6FF040EE66E9BEC3DF0E552E55297C00B
:10013000E6FF050EE66E9BEC3DF0E552E55298C0F9
:10014000E6FF060EE66E9BEC3DF0E552E55212002E
:10015000E66AB6EC3DF0E5520001946F010EE66EE2
:10016000B6EC3DF0E5520001936F020EE66EB6EC80
:100170003DF0E5520001926F030EE66EB6EC3DF0E5
:10018000E5520001956F040EE66EB6EC3DF0E552C7
:100190000001966F050EE66EB6EC3DF0E5520001EB
:1001A000976F630E0001985D09E1060EE66EB6ECEE
:1001B0003DF0E552000902E101010C2B060EE66E4E
:1001C000B6EC3DF0E5520001986F1200370EE66E76
:1001D0007E0EE66EE66AE66ADEEC26F0E552E55251
:1001E000E552E5520201C9055AE11E0EE66EE66AC5
:1001F00037EC3AF0E552E5520D0E0001A825E96E04
:10020000010EA921EA6EEF50E66EA4C0E6FFA2C07F
:10021000E6FF56EC25F0E552E552E5520001A42B2D
:10022000000EA5230001A82BA923100E0001A5AFE5
:1002300002D0D89003D0A45D000EA5590FE30001B1
:10024000A62B000EA7230001A46BA56BA6C0A8F0E7
:10025000A7C0A9F0DEEC24F0AFEC24F00D0E0001F5
:10026000A825E96E010EA921EA6EEF5018E1000100
:10027000A46BA56BAFEC24F0370EE66E7E0EE66E37
:10028000E66AE66ADEEC26F0E552E552E552E55212
:100290000001A66BA76BA6C0A8F0A7C0A9F012002A
:1002A000000EE66EE66A76EC37F0E552E552F35062
:1002B000F41009E0010E00019A6F9B6B00019C6B2A
:1002C0009D6BF36E01D0F36AF46A1200010EE66EC4
:1002D000E66A76EC37F0E552E552F350F41006E0AA
:1002E000010E00019C6F9D6BF36E01D0F36AF46AFE
:1002F00012000001010E9A1915E19B5113E1000152
:10030000010E9C190FE19D510DE1330EE66E7E0E3C
:10031000E66E070EE66EE66ADEEC26F0E552E55282
:10032000E552E5520001010E9A1935E19B5133E186
:1003300000019C519D112FE10C0E0001E76E9219F6
:10034000E8AE02D0923503D0E750D880925504E24F
:100350000C0E925D926F03D00C0E925D08E1010EBF
:1003600000019E6F9F6B2F0EE66E7E0E0AD092519B
:1003700002E10C0E926F00019E6B9F6B2B0EE66EDE
:100380007E0EE66E070EE66EE66ADEEC26F0E552BD
:10039000E552E552E5520A0E046E286E92C023F033
:1003A000E3EC33F023C000F0016A026A036A00AE96
:1003B00003D001680268036800C0E6FF01C0E6FFE1
:1003C00002C0E6FF03C0E6FFE66AE66AB7EC25F086
:1003D000056E060EE15E055092C023F00A0E286EEF
:1003E000E3EC33F01FC000F0016A026A036A00AE5A
:1003F00003D001680268036800C0E6FF01C0E6FFA1
:1004000002C0E6FF03C0E6FF010EE66EE66AB7EC47
:1004100025F0046E060EE15E0450290EE66E7E0E97
:10042000E66E020EE66EE66ADEEC26F0E552E55276
:10043000E552E5520A0E046E286E93C023F0E3ECF9
:1004400033F023C000F0016A026A036A00AE03D0F1
:1004500001680268036800C0E6FF01C0E6FF02C051
:10046000E6FF03C0E6FF030EE66EE66AB7EC25F092
:10047000056E060EE15E055093C023F00A0E286E4D
:10048000E3EC33F01FC000F0016A026A036A00AEB9
:1004900003D001680268036800C0E6FF01C0E6FF00
:1004A00002C0E6FF03C0E6FF040EE66EE66AB7ECA4
:1004B00025F0046E060EE15E0450290EE66E7E0EF7
:1004C000E66E050EE66EE66ADEEC26F0E552E552D3
:1004D000E552E5520A0E046E286E94C023F0E3EC58
:1004E00033F023C000F0016A026A036A00AE03D051
:1004F00001680268036800C0E6FF01C0E6FF02C0B1
:10050000E6FF03C0E6FF060EE66EE66AB7EC25F0EE
:10051000056E060EE15E055094C023F00A0E286EAB
:10052000E3EC33F01FC000F0016A026A036A00AE18
:1005300003D001680268036800C0E6FF01C0E6FF5F
:1005400002C0E6FF03C0E6FF070EE66EE66AB7EC00
:1005500025F0046E060EE15E0450250EE66E7E0E5A
:10056000E66E0B0EE66EE66ADEEC26F0E552E5522C
:10057000E552E552C4C0E9FFC5C0EAFFD890E936AC
:10058000EA36BA0EE926000EEA22EECF00F0EFCFEF
:1005900001F00001800E011425E0230EE66E7E0EB0
:1005A000E66E0E0EE66EE66ADEEC26F0E552E552E9
:1005B000E552E552C4C0E9FFC5C0EAFFD890E9366C
:1005C000EA36BA0EE926000EEA22EECF00F0EFCFAF
:1005D00001F0006C011E000E0122026A036A01AEE6
:1005E00023D020D0210EE66E7E0EE66E0E0EE66E55
:1005F000E66ADEEC26F0E552E552E552E552C4C06B
:10060000E9FFC5C0EAFFD890E936EA36BA0EE92616
:10061000000EEA22EECF00F0EFCF01F0026A036A8B
:1006200001AE02D00268036800C0E6FF01C0E6FF29
:1006300002C0E6FF03C0E6FF0F0EE66EE66AB7EC07
:1006400025F0046E060EE15E0450120000019505CF
:10065000E96EEA6AD890E936EA36840EE926000E99
:10066000EA22EECFE6FFEFCFE6FFE66A010EE66E86
:10067000DEEC26F0E552E552E552E5521E0EE66E3E
:100680007E0EE66E030EE66E010EE66EDEEC26F0E2
:10069000E552E552E552E5520A0E046E286E96C008
:1006A00023F0E3EC33F023C000F0016A026A036A2E
:1006B00000AE03D001680268036800C0E6FF01C015
:1006C000E6FF02C0E6FF03C0E6FF040EE66E010E81
:1006D000E66EB7EC25F0056E060EE15E055096C09D
:1006E00023F00A0E286EE3EC33F01FC000F0016A1D
:1006F000026A036A00AE03D001680268036800C0A2
:10070000E6FF01C0E6FF02C0E6FF03C0E6FF050EFC
:10071000E66E010EE66EB7EC25F0046E060EE15EA5
:1007200004501C0EE66E7E0EE66E060EE66E010EA0
:10073000E66EDEEC26F0E552E552E552E5520A0E91
:10074000046E286E97C023F0E3EC33F023C000F072
:10075000016A026A036A00AE03D001680268036896
:1007600000C0E6FF01C0E6FF02C0E6FF03C0E6FFEF
:10077000070EE66E010EE66EB7EC25F0056E060E6E
:10078000E15E055097C023F00A0E286EE3EC33F0CB
:100790001FC000F0016A026A036A00AE03D001685C
:1007A0000268036800C0E6FF01C0E6FF02C0E6FF82
:1007B00003C0E6FF080EE66E010EE66EB7EC25F00C
:1007C000046E060EE15E04501C0EE66E7E0EE66EB2
:1007D000090EE66E010EE66EDEEC26F0E552E552FD
:1007E000E552E5520A0E046E286E0CC123F0E3ECCC
:1007F00033F023C000F0016A026A036A00AE03D03E
:1008000001680268036800C0E6FF01C0E6FF02C09D
:10081000E6FF03C0E6FF0A0EE66E010EE66EB7ECD9
:1008200025F0056E060EE15E05500CC123F00A0EA0
:10083000286EE3EC33F01FC000F0016A026A036A1D
:1008400000AE03D001680268036800C0E6FF01C083
:10085000E6FF02C0E6FF03C0E6FF0B0EE66E010EE8
:10086000E66EB7EC25F0046E060EE15E04500A0E4B
:10087000046E286E98C023F0E3EC33F023C000F040
:10088000016A026A036A00AE03D001680268036865
:1008900000C0E6FF01C0E6FF02C0E6FF03C0E6FFBE
:1008A0000C0EE66E010EE66EB7EC25F0056E060E38
:1008B000E15E055098C023F00A0E286EE3EC33F099
:1008C0001FC000F0016A026A036A00AE03D001682B
:1008D0000268036800C0E6FF01C0E6FF02C0E6FF51
:1008E00003C0E6FF0D0EE66E010EE66EB7EC25F0D6
:1008F000046E060EE15E04501200D9CFE6FFE1CF90
:10090000D9FF020EE126400EE66E0BEC22F0E55216
:10091000DE6ADD6ADECF00F0DDCF01F0013404E2F3
:1009200000500708000E015412E3DECFE9FFDDCFCF
:10093000EAFF040EE926010EEA22EF50E66E23ECF0
:1009400022F0E552DF2A010EE5E3DB2AE3D70001BE
:10095000C451C51105E1110EE66E7E0EE66E5BD048
:10096000010E016AC425006EC5510122000101502B
:10097000AB19E8AE02D0AB3504D0AA51005CAB5144
:10098000015837E2C4C0E9FFC5C0EAFFD890E93694
:10099000EA36B00EE926000EEA22EECFE6FFEFCFF0
:1009A000E6FFE66AE66ADEEC26F0E552E552E5523D
:1009B000E552010E0001EA6AC425E96EC551EA223A
:1009C000D890E936EA36B00EE926000EEA22EECFDC
:1009D000E6FFEFCFE6FFE66A010EE66EDEEC26F0FC
:1009E000E552E552E552E552E66A0F0EE66EE66A1A
:1009F00037D0C4C0E9FFC5C0EAFFE906000EEA5AD5
:100A0000D890E936EA36B00EE926000EEA22EECF9B
:100A1000E6FFEFCFE6FFE66AE66ADEEC26F0E55297
:100A2000E552E552E552C4C0E9FFC5C0EAFFD890DF
:100A3000E936EA36B00EE926000EEA22EECFE6FFEE
:100A4000EFCFE6FFE66A010EE66EDEEC26F0E55239
:100A5000E552E552E552E66A0F0EE66E010EE66ECD
:100A600056EC25F0E552E552E552020EE15C02E259
:100A7000E16AE552E16EE552E7CFD9FF1200070EB9
:100A80000001C61901E1C75101E18CD0060EC6195B
:100A900001E1C75101E176D0050EC61901E1C75148
:100AA0004AE0040EC61901E1C7513DE0030EC61924
:100AB00001E1C75129E0020EC61901E1C75115E055
:100AC000010EC61901E1C75101E012000001922B8D
:100AD000170EE76E9219E8AE02D0923503D0E750B8
:100AE000D880925570E2926B12000001932B3B0E5E
:100AF000E76E9319E8AE02D0933503D0E750D88063
:100B0000935561E2936B12000001942B3B0EE76E4C
:100B10009419E8AE02D0943503D0E750D8809455AC
:100B200052E2946B12000001952B955107084BE29D
:100B3000010E956F120000019629966F006E016AF2
:100B400000BE016800019705E96EEA6AE9BEEA683D
:100B5000D890E936EA36C80EE926000EEA22EECF32
:100B600002F0EFCF03F003500118E8AE02D00134D9
:100B700004D00050025C0150035825E20001010E30
:100B8000966F12000001972B0C0EE76E9719E8AED6
:100B900002D0973503D0E750D880975514E2010E64
:100BA000976F12000001982B630EE76E9819E8AE5C
:100BB00002D0983503D0E750D880985504E2986B5E
:100BC00001010C2B12001200070E0001C61901E1F1
:100BD000C75168E0060EC61901E1C75154E0050E81
:100BE000C61901E1C75132E0040EC61901E1C7512F
:100BF00025E0030EC61901E1C75119E0020EC6191E
:100C000001E1C7510DE0010EC61901E1C75101E034
:100C100012000001920792354EE3170E926F1200F8
:100C200000019307933547E33B0E936F12000001D9
:100C30009407943540E33B0E946F12000001950732
:100C4000010E955D38E2070E956F120000019605C2
:100C5000966F010EE76E9619E8AE02D0E73402D027
:100C6000E750965D28E200019705E96EEA6AE9BE61
:100C7000EA68D890E936EA36C80EE926000EEA227C
:100C8000EFCF96F0120000019707010EE76E97195B
:100C9000E8AE02D0E73402D0E750975D0CE20C0ECC
:100CA000976F120000019807983505E3630E986F5F
:100CB00001010C07120012000A0E046E286E92C089
:100CC00023F0E3EC33F023C000F0016A026A036A08
:100CD00000AE03D001680268036800C0E6FF01C0EF
:100CE000E6FF02C0E6FF03C0E6FF050EE66E010E5A
:100CF000E66EB7EC25F0056E060EE15E055092C07B
:100D000023F00A0E286EE3EC33F01FC000F0016AF6
:100D1000026A036A00AE03D001680268036800C07B
:100D2000E6FF01C0E6FF02C0E6FF03C0E6FF060ED5
:100D3000E66E010EE66EB7EC25F0046E060EE15E7F
:100D400004500001010EC6191AE1C75118E1000153
:100D5000010EE01914E1E15112E10001FA51FB1119
:100D60000EE10E0EE66E7E0EE66E050EE66E010ECE
:100D7000E66EDEEC26F0E552E552E552E552290E2C
:100D8000E66E7E0EE66E070EE66E010EE66EDEEC99
:100D900026F0E552E552E552E5520A0E046E286E41
:100DA00093C023F0E3EC33F023C000F0016A026A41
:100DB000036A00AE03D001680268036800C0E6FF62
:100DC00001C0E6FF02C0E6FF03C0E6FF080EE66EC4
:100DD000010EE66EB7EC25F0056E060EE15E0550DD
:100DE00093C023F00A0E286EE3EC33F01FC000F02E
:100DF000016A026A036A00AE03D0016802680368F0
:100E000000C0E6FF01C0E6FF02C0E6FF03C0E6FF48
:100E1000090EE66E010EE66EB7EC25F0046E060EC6
:100E2000E15E04500001020EC6191AE1C75118E133
:100E30000001010EE01914E1E15112E10001FA5143
:100E4000FB110EE10E0EE66E7E0EE66E080EE66EED
:100E5000010EE66EDEEC26F0E552E552E552E55273
:100E600012000A0E046E286E92C023F0E3EC33F0F9
:100E700023C000F0016A026A036A00AE03D0016871
:100E80000268036800C0E6FF01C0E6FF02C0E6FF9B
:100E900003C0E6FFE66AE66AB7EC25F0056E060ECB
:100EA000E15E055092C023F00A0E286EE3EC33F0A9
:100EB0001FC000F0016A026A036A00AE03D0016835
:100EC0000268036800C0E6FF01C0E6FF02C0E6FF5B
:100ED00003C0E6FF010EE66EE66AB7EC25F0046E8D
:100EE000060EE15E04500001010EC61925E1C7514E
:100EF00023E10001010EE0191FE1E1511DE10001B4
:100F0000FA51FB1119E10C0EE66E7E0EE66EE66AF2
:100F1000E66ADEEC26F0E552E552E552E5520C0EAB
:100F2000E66E7E0EE66E010EE66EE66ADEEC26F0FA
:100F3000E552E552E552E552290EE66E7E0EE66E6A
:100F4000020EE66EE66ADEEC26F0E552E552E55268
:100F5000E5520A0E046E286E93C023F0E3EC33F0E2
:100F600023C000F0016A026A036A00AE03D0016880
:100F70000268036800C0E6FF01C0E6FF02C0E6FFAA
:100F800003C0E6FF030EE66EE66AB7EC25F0056ED9
:100F9000060EE15E055093C023F00A0E286EE3ECC6
:100FA00033F01FC000F0016A026A036A00AE03D08A
:100FB00001680268036800C0E6FF01C0E6FF02C0E6
:100FC000E6FF03C0E6FF040EE66EE66AB7EC25F026
:100FD000046E060EE15E04500001020EC61926E101
:100FE000C75124E10001010EE01920E1E1511EE1A9
:100FF0000001FA51FB111AE10C0EE66E7E0EE66E50
:10100000030EE66EE66ADEEC26F0E552E552E552A6
:10101000E5520C0EE66E7E0EE66E040EE66EE66A95
:10102000DEEC26F0E552E552E552E552290EE66E79
:101030007E0EE66E050EE66EE66ADEEC26F0E55202
:10104000E552E552E5520A0E046E286E94C023F074
:10105000E3EC33F023C000F0016A026A036A00AED9
:1010600003D001680268036800C0E6FF01C0E6FF24
:1010700002C0E6FF03C0E6FF060EE66EE66AB7ECC6
:1010800025F0056E060EE15E055094C023F00A0EB1
:10109000286EE3EC33F01FC000F0016A026A036AB5
:1010A00000AE03D001680268036800C0E6FF01C01B
:1010B000E6FF02C0E6FF03C0E6FF070EE66EE66A43
:1010C000B7EC25F0046E060EE15E04500001030E3D
:1010D000C61926E1C75124E10001010EE01920E103
:1010E000E1511EE10001FA51FB111AE10C0EE66E0E
:1010F0007E0EE66E060EE66EE66ADEEC26F0E55241
:10110000E552E552E5520C0EE66E7E0EE66E070ED7
:10111000E66EE66ADEEC26F0E552E552E552E5526F
:1011200000019505E96EEA6AD890E936EA36840E40
:10113000E926000EEA22EECFE6FFEFCFE6FFE66AF1
:10114000010EE66EDEEC26F0E552E552E552E55280
:101150000001040EC61919E1C75117E10001010E83
:10116000E01913E1E15111E10001FA51FB110DE128
:10117000330EE66E7E0EE66EE66A010EE66EDEEC7D
:1011800026F0E552E552E552E5521E0EE66E7E0E61
:10119000E66E030EE66E010EE66EDEEC26F0E5521C
:1011A000E552E552E5520A0E046E286E96C023F011
:1011B000E3EC33F023C000F0016A026A036A00AE78
:1011C00003D001680268036800C0E6FF01C0E6FFC3
:1011D00002C0E6FF03C0E6FF050EE66E010EE66EF6
:1011E000B7EC25F0056E060EE15E055096C023F0C3
:1011F0000A0E286EE3EC33F01FC000F0016A026AA9
:10120000036A00AE03D001680268036800C0E6FF0D
:1012100001C0E6FF02C0E6FF03C0E6FF060EE66E71
:10122000010EE66EB7EC25F0046E060EE15E04508A
:101230000001050EC6191AE1C75118E10001010E9F
:10124000E01914E1E15112E10001FA51FB110EE144
:101250000E0EE66E7E0EE66E050EE66E010EE66E74
:10126000DEEC26F0E552E552E552E5521C0EE66E44
:101270007E0EE66E070EE66E010EE66EDEEC26F0E2
:10128000E552E552E552E5520A0E046E286E97C00B
:1012900023F0E3EC33F023C000F0016A026A036A32
:1012A00000AE03D001680268036800C0E6FF01C019
:1012B000E6FF02C0E6FF03C0E6FF080EE66E010E81
:1012C000E66EB7EC25F0056E060EE15E055097C0A0
:1012D00023F00A0E286EE3EC33F01FC000F0016A21
:1012E000026A036A00AE03D001680268036800C0A6
:1012F000E6FF01C0E6FF02C0E6FF03C0E6FF090EFD
:10130000E66E010EE66EB7EC25F0046E060EE15EA9
:1013100004500001060EC6191AE1C75118E1000178
:10132000010EE01914E1E15112E10001FA51FB1143
:101330000EE10E0EE66E7E0EE66E080EE66E010EF5
:10134000E66EDEEC26F0E552E552E552E5521C0E63
:10135000E66E7E0EE66E0A0EE66E010EE66EDEECC0
:1013600026F0E552E552E552E5520A0E046E286E6B
:101370000CC123F0E3EC33F023C000F0016A026AF1
:10138000036A00AE03D001680268036800C0E6FF8C
:1013900001C0E6FF02C0E6FF03C0E6FF0B0EE66EEB
:1013A000010EE66EB7EC25F0056E060EE15E055007
:1013B0000CC123F00A0E286EE3EC33F01FC000F0DE
:1013C000016A026A036A00AE03D00168026803681A
:1013D00000C0E6FF01C0E6FF02C0E6FF03C0E6FF73
:1013E0000C0EE66E010EE66EB7EC25F0046E060EEE
:1013F000E15E04500A0E046E286E98C023F0E3EC00
:1014000033F023C000F0016A026A036A00AE03D021
:1014100001680268036800C0E6FF01C0E6FF02C081
:10142000E6FF03C0E6FF0D0EE66E010EE66EB7ECBA
:1014300025F0056E060EE15E055098C023F00A0EF9
:10144000286EE3EC33F01FC000F0016A026A036A01
:1014500000AE03D001680268036800C0E6FF01C067
:10146000E6FF02C0E6FF03C0E6FF0E0EE66E010EC9
:10147000E66EB7EC25F0046E060EE15E0450000146
:10148000070EC6191AE1C75118E10001010EE01953
:1014900014E1E15112E10001FA51FB110EE1070ED6
:1014A000E66E7E0EE66E0B0EE66E010EE66EDEEC6E
:1014B00026F0E552E552E552E5521200D9CFE6FF9B
:1014C000E1CFD9FF1E0EE126040EDB6A050EDB6AB2
:1014D0001F0EF36E060EF3CFDBFF070EDB6A3B0E2B
:1014E000F36E080EF3CFDBFF090EDB6A5A0EF36EC4
:1014F0000A0EF3CFDBFF0B0EDB6A780EF36E0C0ED9
:10150000F3CFDBFF0D0EDB6A970EF36E0E0EF3CFFB
:10151000DBFF0F0EDB6AB50EF36E100EF3CFDBFFB1
:10152000110EDB6AD40EF36E120EF3CFDBFF130E37
:10153000DB6AF30EF36E140EF3CFDBFF150EDB6ADE
:10154000110EF36E160EF3CFDBFF010EF36E170EC6
:10155000F3CFDBFF300EF36E180EF3CFDBFF010E7F
:10156000F36E190EF3CFDBFF4E0EF36E1A0EF3CFB0
:10157000DBFF010EF36E1B0EF3CFDBFF1C0EDB6AED
:101580001D0EDB6A640E01010C03F3500001982567
:10159000006E236E040E286EE3EC33F01F500EE154
:1015A000640E01010C03F35000019825016E236EB7
:1015B000640E286EE3EC33F01F501BE1640E010152
:1015C0000C03F35000019825026E036A02BE036803
:1015D000900E276E010E286E02C022F003C023F089
:1015E000FDEC33F01EC002F01FC003F01E501F10B0
:1015F00007E1010EF36E1C0EF3CFDBFF1D0EDB6A5D
:10160000D9501C0FE96EDACFEAFF010EEE1845E162
:10161000ED5043E1020E0001E76E9719E8AE02D0EB
:10162000973503D0E750D880975511E396C006F060
:10163000076A06BE0768D950040F026EDACF03F0BE
:101640009705046E056A04AE38D0056836D096C09A
:1016500008F0096A08BE0968D950040F046EDACF91
:1016600005F09705066E076A06BE0768D89006362D
:10167000073604500624E96E05500720EA6E08502C
:10168000EE24026E0950EE20036E1C0EDB50022485
:10169000006E1D0EDB5003201ED096C006F0076AB8
:1016A00006BE0768D950040F026EDACF03F00001BE
:1016B0009705046E056A04BE0568D89004360536A1
:1016C00002500424E96E03500520EA6E0650EE2411
:1016D000006E0750EE20016E00C0DEFFDD6E0001DF
:1016E000950509E1DECF00F0DDCF01F0070E005EC9
:1016F000000E015A09D09551026E036A0250DE5C59
:10170000006E0350DD58016E0A0E0026000E012205
:10171000070E276E286A00C022F001C023F0FDECFE
:1017200033F022C000F023C001F0020E22C0DBFF24
:10173000030E23C0DBFFAFEC24F0010EE66E7E0E3D
:10174000E66EE66AE66ADEEC26F0E552E552E55220
:10175000E552DECF00F0DDCF01F0026A036A01AE90
:1017600002D00268036800C0E6FF01C0E6FF02C0C5
:10177000E6FF03C0E6FF060EE66EE66AB7EC25F06C
:10178000046E060EE15E0450FB0EE66E7D0EE66E04
:10179000E66A010EE66EDEEC26F0E552E552E55211
:1017A000E552020EDBCF00F0030EDBCF01F0026A40
:1017B000036A01AE02D00268036800C0E6FF01C000
:1017C000E6FF02C0E6FF03C0E6FF060EE66E010E6E
:1017D000E66EB7EC25F0046E060EE15E0450DEEC1A
:1017E00024F01E0EE15C02E2E16AE552E16EE55290
:1017F000E7CFD9FF12000001E82B000EE923640EA9
:10180000E81907E1E95105E1E62B000EE723E86B53
:10181000E96B3C0EE61907E1E75105E1E42B000E08
:10182000E523E66BE76B3C0EE41918E1E55116E1A0
:10183000010EE225E26F000EE321E36F180E276E22
:10184000286AE2C022F0E3C023F0FDEC33F01EC0B2
:10185000E2F01FC0E3F00001E46BE56B1200EE0E56
:10186000E66E7D0EE66EE66AE66ADEEC26F0E5528E
:10187000E552E552E5520A0E0001E3AF02D0D890DE
:1018800003D0E25D000EE35928E3E2C000F0E3C0BC
:1018900001F00A0E276E286AE2C022F0E3C023F0AE
:1018A000FDEC33F022C000F023C001F0026A036AAD
:1018B00001AE02D00268036800C0E6FF01C0E6FF87
:1018C00002C0E6FF03C0E6FFE66A010EE66EB7EC73
:1018D00025F0046E060EE15E0450E2C000F0E3C0A5
:1018E00001F00A0E276E286AE2C022F0E3C023F05E
:1018F000FDEC33F01EC000F01FC001F0026A036A65
:1019000001AE02D00268036800C0E6FF01C0E6FF36
:1019100002C0E6FF03C0E6FF010EE66EE66EB7EC1E
:1019200025F0046E060EE15E0450290EE66E7E0E72
:10193000E66E020EE66E010EE66EDEEC26F0E55275
:10194000E552E552E552E4C000F0E5C001F00A0EB0
:10195000276E286AE4C022F0E5C023F0FDEC33F0E6
:1019600022C000F023C001F0026A036A01AE02D077
:101970000268036800C0E6FF01C0E6FF02C0E6FFA0
:1019800003C0E6FF030EE66E010EE66EB7EC25F02F
:10199000046E060EE15E0450E4C000F0E5C001F004
:1019A0000A0E276E286AE4C022F0E5C023F0FDECA1
:1019B00033F01EC000F01FC001F0026A036A01AEDE
:1019C00002D00268036800C0E6FF01C0E6FF02C063
:1019D000E6FF03C0E6FF040EE66E010EE66EB7EC0E
:1019E00025F0046E060EE15E0450290EE66E7E0EB2
:1019F000E66E050EE66E010EE66EDEEC26F0E552B2
:101A0000E552E552E552E6C000F0E7C001F00A0EEB
:101A1000276E286AE6C022F0E7C023F0FDEC33F021
:101A200022C000F023C001F0026A036A01AE02D0B6
:101A30000268036800C0E6FF01C0E6FF02C0E6FFDF
:101A400003C0E6FF060EE66E010EE66EB7EC25F06B
:101A5000046E060EE15E0450E6C000F0E7C001F03F
:101A60000A0E276E286AE6C022F0E7C023F0FDECDC
:101A700033F01EC000F01FC001F0026A036A01AE1D
:101A800002D00268036800C0E6FF01C0E6FF02C0A2
:101A9000E6FF03C0E6FF070EE66E010EE66EB7EC4A
:101AA00025F0046E060EE15E0450290EE66E7E0EF1
:101AB000E66E080EE66E010EE66EDEEC26F0E552EE
:101AC000E552E552E552E8C000F0E9C001F00A0E27
:101AD000276E286AE8C022F0E9C023F0FDEC33F05D
:101AE00022C000F023C001F0026A036A01AE02D0F6
:101AF0000268036800C0E6FF01C0E6FF02C0E6FF1F
:101B000003C0E6FF090EE66E010EE66EB7EC25F0A7
:101B1000046E060EE15E0450E8C000F0E9C001F07A
:101B20000A0E276E286AE8C022F0E9C023F0FDEC17
:101B300033F01EC000F01FC001F0026A036A01AE5C
:101B400002D00268036800C0E6FF01C0E6FF02C0E1
:101B5000E6FF03C0E6FF0A0EE66E010EE66EB7EC86
:101B600025F0046E060EE15E04501200000EE66ED3
:101B7000E66A76EC37F0E552E552F3CF00F0F4CFA9
:101B800001F0F350F4101BE0010E0001C625C66FF2
:101B9000000EC721C76F030E276E286AC6C022F049
:101BA000C7C023F0FDEC33F01EC0C6F01FC0C7F065
:101BB00000011E501F1003E1010EC66FC76B060E19
:101BC000E66EE66A1BEC37F0E552E552F3CF00F023
:101BD000F4CF01F0F350F41006E03FEC05F0010EF5
:101BE0000001FA6FFB6B040EE66EE66A1BEC37F041
:101BF000E552E552F3CF00F0F4CF01F0F350F410CA
:101C000006E0E4EC05F0010E0001FA6FFB6B050E37
:101C1000E66EE66A1BEC37F0E552E552F3CF00F0D2
:101C2000F4CF01F0F350F41013E092C0EEF505018B
:101C3000EF6BEEBFEF6993C0F0F50501F16BF0BFFC
:101C4000F169010E0001806F816B0001EC6FED6B9B
:101C5000AFEC24F0DD0EE66E7D0EE66EE66AE66A17
:101C6000DEEC26F0E552E552E552E5525CEC06F07A
:101C7000DEEC24F00001FA6BFB6B12000001010E98
:101C80009A1901E090D09B5101E08DD000019C5148
:101C90009D1101E088D00C0E0001E76E9219E8AEAC
:101CA00002D0923503D0E750D880925504E20C0E52
:101CB000925D926F03D00C0E925D06E1010E000161
:101CC0009E6F9F6B500E08D0925102E10C0E926FE6
:101CD00000019E6B9F6B410EE66E0E0EE66EE66A8D
:101CE00056EC25F0E552E552E5524D0EE66E0F0E2C
:101CF000E66EE66A56EC25F0E552E552E5520A0E2C
:101D0000006E286E92C023F0E3EC33F02350E66EB1
:101D1000E66AE66AD7EC17F0E552E552E55292C062
:101D200023F00A0E286EE3EC33F01F50E66E030E2C
:101D3000E66EE66AD7EC17F0E552E552E552070E7B
:101D4000E66E060EE66EE66A56EC25F0E552E552C2
:101D5000E552070EE66E060EE66E010EE66E56ECD6
:101D600025F0E552E552E5520A0E006E286E93C04A
:101D700023F0E3EC33F02350E66E070EE66EE66ADE
:101D8000D7EC17F0E552E552E55293C023F00A0E66
:101D9000286EE3EC33F01F50E66E0A0EE66EE66A3C
:101DA000D7EC17F066D00A0E006E286E92C023F0B2
:101DB000E3EC33F02350E66E010EE66EE66AD7ECF4
:101DC00017F0E552E552E55292C023F00A0E286E54
:101DD000E3EC33F01F50E66E040EE66EE66AD7ECD5
:101DE00017F0E552E552E552070EE66EE66EE66A3A
:101DF00056EC25F0E552E552E552070EE66EE66E2A
:101E0000010EE66E56EC25F0E552E552E5520A0E5B
:101E1000006E286E93C023F0E3EC33F02350E66E9F
:101E2000080EE66EE66AD7EC17F0E552E552E55289
:101E300093C023F00A0E286EE3EC33F01F50E66ED9
:101E40000B0EE66EE66AD7EC17F0E552E552E55266
:101E5000200EE66E0E0EE66EE66A56EC25F0E552B2
:101E6000E552E552200EE66E0F0EE66EE66A56EC7F
:101E700025F0E552E552E552DEEF24F0D9CFE6FF3A
:101E8000E1CFD9FF020EE126050EE66EE66A76EC9A
:101E900037F0E552E552F3CF00F0F4CF01F0F35004
:101EA000F41004E0EEC0F2F0EFC0F3F00001010E18
:101EB000F4191EE1F5511CE1AFEC24F0CE0EE66EF4
:101EC0007D0EE66E010EE66EE66ADEEC26F0E55269
:101ED000E552E552E552DEEC24F0E80EE66E030E24
:101EE000E66ED6EC3AF0E552E5520001F46BF56B84
:101EF0000001F21D4DE1F31D4BE1400EE66E0BECCF
:101F000022F0E552DE6ADD6ADECF00F0DDCF01F0BF
:101F1000013404E200500708000E015412E3DECF42
:101F2000E9FFDDCFEAFF040EE926010EEA22EF50B9
:101F3000E66E23EC22F0E552DF2A010EE5E3DB2A10
:101F4000E3D7AFEC24F04C0EE66E7E0EE66EE66A4A
:101F5000E66ADEEC26F0E552E552E552E552470E20
:101F6000E66E7E0EE66EE66A010EE66EDEEC26F0AA
:101F7000E552E552E552E552E66A0F0EE66EEEC016
:101F8000E6FF56EC25F0E552E552E552DEEC24F092
:101F9000AFEC24F0060EE66EE66A76EC37F0E5521A
:101FA000E552F3CF00F0F4CF01F0F350F4101DE050
:101FB0000001EE2B000EEF23F0C000F0F1C001F0A5
:101FC0000006015A0150EF19E8AE02D0EF3504D0F7
:101FD000EE51005CEF51015808E2F0C0EEF0F1C0A4
:101FE000EFF0010EEE5F000EEF5B040EE66EE66AA8
:101FF00076EC37F0E552E552F3CF00F0F4CF01F084
:10200000F350F41009E00001EE07000EEF5B800EC4
:10201000EF1502E0EE6BEF6B010E0001F21901E12A
:10202000F35107E0F25107E1F35105E147EC18F0F5
:1020300002D002EC1EF0020EE15C02E2E16AE5521F
:10204000E16EE552E7CFD9FF1200E66AB6EC3DF04B
:10205000E5520001946F006E016A00BE01680050F5
:102060000501FE1902E10150FF1936E094C0FEF5AA
:10207000FF6BFEBFFF690501F53524E2F45100084E
:10208000000EF5551FE2010EF65F000EF75B3C0EE9
:10209000F627000EF7233C0E276E286AF6C522F0BD
:1020A000F7C523F0FDEC33F01EC0F6F51FC0F7F5C1
:1020B00005013B0E1E1805E1F7510EE1F407000E75
:1020C000F55B1200F73508E2F6510008000EF755EF
:1020D00003E2F607000EF75B1200AFEC24F0C30E2C
:1020E000E66E7D0EE66EE66AE66ADEEC26F0E55206
:1020F000E552E552E5520A0E0501F5AF02D0D8903F
:1021000003D0F45D000EF55928E3F4C500F0F5C5E1
:1021100001F00A0E276E286AF4C522F0F5C523F0F7
:10212000FDEC33F022C000F023C001F0026A036A24
:1021300001AE02D00268036800C0E6FF01C0E6FFFE
:1021400002C0E6FF03C0E6FFE66A010EE66EB7ECEA
:1021500025F0046E060EE15E0450F4C500F0F5C5EE
:1021600001F00A0E276E286AF4C522F0F5C523F0A7
:10217000FDEC33F01EC000F01FC001F0026A036ADC
:1021800001AE02D00268036800C0E6FF01C0E6FFAE
:1021900002C0E6FF03C0E6FF010EE66EE66EB7EC96
:1021A00025F0046E060EE15E0450290EE66E7E0EEA
:1021B000E66E020EE66E010EE66EDEEC26F0E552ED
:1021C000E552E552E552F6C500F0F7C501F00A0EFA
:1021D000276E286AF6C522F0F7C523F0FDEC33F030
:1021E00022C000F023C001F0026A036A01AE02D0EF
:1021F0000268036800C0E6FF01C0E6FF02C0E6FF18
:1022000003C0E6FF030EE66E010EE66EB7EC25F0A6
:10221000046E060EE15E0450F6C500F0F7C501F04D
:102220000A0E276E286AF6C522F0F7C523F0FDECEA
:1022300033F01EC000F01FC001F0026A036A01AE55
:1022400002D00268036800C0E6FF01C0E6FF02C0DA
:10225000E6FF03C0E6FF040EE66E010EE66EB7EC85
:1022600025F0046E060EE15E04500501010EFA1918
:1022700022E1FB5120E10001010EE0191CE1E151D6
:102280001AE10C0EE66E7E0EE66EE66A010EE66E52
:10229000DEEC26F0E552E552E552E5520C0EE66E14
:1022A0007E0EE66E010EE66EE66EDEEC26F0E55280
:1022B000E552E552E5520501020EFA1924E1FB51FF
:1022C00022E10001010EE0191EE1E1511CE10C0EBA
:1022D000E66E7E0EE66E030EE66E010EE66EDEEC38
:1022E00026F0E552E552E552E5520C0EE66E7E0E02
:1022F000E66E040EE66E010EE66EDEEC26F0E552AA
:0A230000E552E552E552DEEF24F04D
:06230A00D9CFE6FFE1CF90
:10231000D9FF020EE126400EE66E0BEC22F0E552EC
:10232000DE6ADD6ADECF00F0DDCF01F0013404E2C9
:1023300000500708000E015412E3DECFE9FFDDCFA5
:10234000EAFF000EE9260F0EEA22EF50E66E23ECBC
:1023500022F0E552DF2A010EE5E3DB2AE3D7480E3F
:10236000E66E0BEC22F0E552DE6ADD6ADECF00F0AD
:10237000DDCF01F0013404E200500708000E0154E3
:1023800012E3DECFE9FFDDCFEAFF080EE9260F0EEC
:10239000EA22EF50E66E23EC22F0E552DF2A010E2E
:1023A000E5E3DB2AE3D7500EE66E0BEC22F0E552B4
:1023B000DE6ADD6ADECF00F0DDCF01F0013404E239
:1023C00000500708000E015412E3DECFE9FFDDCF15
:1023D000EAFF100EE9260F0EEA22EF50E66E23EC1C
:1023E00022F0E552DF2A010EE5E3DB2AE3D7580E9F
:1023F000E66E0BEC22F0E552DE6ADD6ADECF00F01D
:10240000DDCF01F0013404E200500708000E015452
:1024100012E3DECFE9FFDDCFEAFF180EE9260F0E4B
:10242000EA22EF50E66E23EC22F0E552DF2A010E9D
:10243000E5E3DB2AE3D7600EE66E0BEC22F0E55213
:10244000DE6ADD6ADECF00F0DDCF01F0013404E2A8
:1024500000500708000E015412E3DECFE9FFDDCF84
:10246000EAFF200EE9260F0EEA22EF50E66E23EC7B
:1024700022F0E552DF2A010EE5E3DB2AE3D7680EFE
:10248000E66E0BEC22F0E552DE6ADD6ADECF00F08C
:10249000DDCF01F0013404E200500708000E0154C2
:1024A00012E3DECFE9FFDDCFEAFF280EE9260F0EAB
:1024B000EA22EF50E66E23EC22F0E552DF2A010E0D
:1024C000E5E3DB2AE3D7700EE66E0BEC22F0E55273
:1024D000DE6ADD6ADECF00F0DDCF01F0013404E218
:1024E00000500708000E015412E3DECFE9FFDDCFF4
:1024F000EAFF300EE9260F0EEA22EF50E66E23ECDB
:1025000022F0E552DF2A010EE5E3DB2AE3D7780E5D
:10251000E66E0BEC22F0E552DE6ADD6ADECF00F0FB
:10252000DDCF01F0013404E200500708000E015431
:1025300012E3DECFE9FFDDCFEAFF380EE9260F0E0A
:10254000EA22EF50E66E23EC22F0E552DF2A010E7C
:10255000E5E3DB2AE3D7020EE15C02E2E16AE55241
:10256000E16EE552E7CFD9FF1200D9CFE6FFE1CF08
:10257000D9FF020EE126400EE66E0BEC22F0E5528A
:10258000DE6ADD6ADECF00F0DDCF01F0013404E267
:1025900000500708000E015416E3FD0EDBCF00F0DB
:1025A000FE0EDBCF01F0DE500024E96EDD5001208D
:1025B000EA6EEF50E66E23EC22F0E552DF2A010EC0
:1025C000E1E3DB2ADFD7480EE66E0BEC22F0E552A2
:1025D000DE6ADD6ADECF00F0DDCF01F0013404E217
:1025E00000500708000E015416E3FB0EDBCF00F08D
:1025F000FC0EDBCF01F0DE500024E96EDD5001203F
:10260000EA6EEF50E66E23EC22F0E552DF2A010E6F
:10261000E1E3DB2ADFD7500EE66E0BEC22F0E55249
:10262000DE6ADD6ADECF00F0DDCF01F0013404E2C6
:1026300000500708000E015416E3F90EDBCF00F03E
:10264000FA0EDBCF01F0DE500024E96EDD500120F0
:10265000EA6EEF50E66E23EC22F0E552DF2A010E1F
:10266000E1E3DB2ADFD7580EE66E0BEC22F0E552F1
:10267000DE6ADD6ADECF00F0DDCF01F0013404E276
:1026800000500708000E015416E3F70EDBCF00F0F0
:10269000F80EDBCF01F0DE500024E96EDD500120A2
:1026A000EA6EEF50E66E23EC22F0E552DF2A010ECF
:1026B000E1E3DB2ADFD7600EE66E0BEC22F0E55299
:1026C000DE6ADD6ADECF00F0DDCF01F0013404E226
:1026D00000500708000E015416E3F50EDBCF00F0A2
:1026E000F60EDBCF01F0DE500024E96EDD50012054
:1026F000EA6EEF50E66E23EC22F0E552DF2A010E7F
:10270000E1E3DB2ADFD7680EE66E0BEC22F0E55240
:10271000DE6ADD6ADECF00F0DDCF01F0013404E2D5
:1027200000500708000E015416E3F30EDBCF00F053
:10273000F40EDBCF01F0DE500024E96EDD50012005
:10274000EA6EEF50E66E23EC22F0E552DF2A010E2E
:10275000E1E3DB2ADFD7020EE15C02E2E16AE55247
:10276000E16EE552E7CFD9FF1200D9CFE6FFE1CF06
:10277000D9FFE66AFD0EDBCFE6FFFE0EDBCFE6FFFC
:1027800056EC25F0E552E552E552010EE66EFD0EDF
:10279000DB28E66EFE0EDBCFE6FF56EC25F0E552B9
:1027A000E552E552020EE66EFD0EDB50020FE66EBC
:1027B000FE0EDBCFE6FF56EC25F0E552E552E55282
:1027C000030EE66EFD0EDBCFE6FFFE0EDB28E66EA7
:1027D00056EC25F0E552E552E552040EE66EFD0E8C
:1027E000DB28E66EFE0EDB28E66E56EC25F0E552A1
:1027F000E552E552050EE66EFD0EDB50020FE66E69
:10280000FE0EDB28E66E56EC25F0E552E552E55269
:10281000E552E7CFD9FF1200D9CFE6FFE1CFD9FFCC
:10282000010EE66EFD0EDBCFE6FFFE0EDBCFE6FF10
:1028300056EC25F0E552E552E552020EE66EFD0E2D
:10284000DB28E66EFE0EDBCFE6FF56EC25F0E55208
:10285000E552E552040EE66EFD0EDBCFE6FFFE0EFE
:10286000DB28E66E56EC25F0E552E552E552E668C7
:10287000FD0EDB28E66EFE0EDB28E66E56EC25F03C
:10288000E552E552E552040EE66EFD0EDB50020FF6
:10289000E66EFE0EDB28E66E56EC25F0E552E552BC
:1028A000E552E552E7CFD9FF1200D9CFE6FFE1CFDD
:1028B000D9FF060EE66EFD0EDBCFE6FFFE0EDBCF88
:1028C000E6FF56EC25F0E552E552E552060EE66EBF
:1028D000FD0EDB28E66EFE0EDBCFE6FF56EC25F0A4
:1028E000E552E552E552020EE66EFD0EDB50020F98
:1028F000E66EFE0EDBCFE6FF56EC25F0E552E55224
:10290000E552030EE66EFD0EDBCFE6FFFE0EDB2882
:10291000E66E56EC25F0E552E552E552040EE66E01
:10292000FD0EDB28E66EFE0EDB28E66E56EC25F08B
:10293000E552E552E552040EE66EFD0EDB50020F45
:10294000E66EFE0EDB28E66E56EC25F0E552E5520B
:10295000E552E552E7CFD9FF1200D9CFE6FFE1CF2C
:10296000D9FF060EE66EFD0EDBCFE6FFFE0EDBCFD7
:10297000E6FF56EC25F0E552E552E552060EE66E0E
:10298000FD0EDB28E66EFE0EDBCFE6FF56EC25F0F3
:10299000E552E552E552020EE66EFD0EDB50020FE7
:1029A000E66EFE0EDBCFE6FF56EC25F0E552E55273
:1029B000E552040EE66EFD0EDBCFE6FFFE0EDB28D1
:1029C000E66E56EC25F0E552E552E552040EE66E51
:1029D000FD0EDB28E66EFE0EDB28E66E56EC25F0DB
:1029E000E552E552E552050EE66EFD0EDB50020F94
:1029F000E66EFE0EDB28E66E56EC25F0E552E5525B
:102A0000E552E552E7CFD9FF1200D9CFE6FFE1CF7B
:102A1000D9FF030EE66EFD0EDBCFE6FFFE0EDBCF29
:102A2000E6FF56EC25F0E552E552E552040EE66E5F
:102A3000FD0EDB28E66EFE0EDBCFE6FF56EC25F042
:102A4000E552E552E552020EE66EFD0EDB50020F36
:102A5000E66EFE0EDBCFE6FF56EC25F0E552E552C2
:102A6000E552050EE66EFD0EDB50020FE66EFE0E21
:102A7000DB28E66E56EC25F0E552E552E552E552CC
:102A8000E7CFD9FF1200D9CFE6FFE1CFD9FF030E80
:102A9000E66EFD0EDBCFE6FFFE0EDBCFE6FF56EC6B
:102AA00025F0E552E552E552060EE66EFD0EDB28F6
:102AB000E66EFE0EDBCFE6FF56EC25F0E552E55262
:102AC000E552060EE66EFD0EDB50020FE66EFE0EC0
:102AD000DBCFE6FF56EC25F0E552E552E552040E59
:102AE000E66EFD0EDBCFE6FFFE0EDB28E66E56EC53
:102AF00025F0E552E552E552040EE66EFD0EDB28A8
:102B0000E66EFE0EDB28E66E56EC25F0E552E55249
:102B1000E552050EE66EFD0EDB50020FE66EFE0E70
:102B2000DB28E66E56EC25F0E552E552E552E5521B
:102B3000E7CFD9FF1200D9CFE6FFE1CFD9FFE66A90
:102B4000FD0EDBCFE6FFFE0EDBCFE6FF56EC25F0F9
:102B5000E552E552E552060EE66EFD0EDB28E66E06
:102B6000FE0EDBCFE6FF56EC25F0E552E552E552CE
:102B7000060EE66EFD0EDB50020FE66EFE0EDBCF9C
:102B8000E6FF56EC25F0E552E552E552030EE66EFF
:102B9000FD0EDBCFE6FFFE0EDB28E66E56EC25F0E1
:102BA000E552E552E552040EE66EFD0EDB28E66EB8
:102BB000FE0EDB28E66E56EC25F0E552E552E552B6
:102BC000050EE66EFD0EDB50020FE66EFE0EDB28F4
:102BD000E66E56EC25F0E552E552E552E552E7CFB8
:102BE000D9FF1200D9CFE6FFE1CFD9FF010EE66E83
:102BF000FD0EDBCFE6FFFE0EDBCFE6FF56EC25F049
:102C0000E552E552E552010EE66EFD0EDB28E66E5A
:102C1000FE0EDBCFE6FF56EC25F0E552E552E5521D
:102C2000020EE66EFD0EDB50020FE66EFE0EDBCFEF
:102C3000E6FF56EC25F0E552E552E552050EE66E4C
:102C4000FD0EDB50020FE66EFE0EDB28E66E56EC44
:102C500025F0E552E552E552E552E7CFD9FF1200E3
:102C6000D9CFE6FFE1CFD9FFE66AFD0EDBCFE6FF65
:102C7000FE0EDBCFE6FF56EC25F0E552E552E552BD
:102C8000060EE66EFD0EDB28E66EFE0EDBCFE6FFDF
:102C900056EC25F0E552E552E552020EE66EFD0EC9
:102CA000DB50020FE66EFE0EDBCFE6FF56EC25F0A2
:102CB000E552E552E552030EE66EFD0EDBCFE6FF70
:102CC000FE0EDB28E66E56EC25F0E552E552E552A5
:102CD000040EE66EFD0EDB28E66EFE0EDB28E66EC9
:102CE00056EC25F0E552E552E552050EE66EFD0E76
:102CF000DB50020FE66EFE0EDB28E66E56EC25F08A
:102D0000E552E552E552E552E7CFD9FF1200D9CF9F
:102D1000E6FFE1CFD9FFE66AFD0EDBCFE6FFFE0E50
:102D2000DBCFE6FF56EC25F0E552E552E552060E04
:102D3000E66EFD0EDB28E66EFE0EDBCFE6FF56EC00
:102D400025F0E552E552E552020EE66EFD0EDB502F
:102D5000020FE66EFE0EDBCFE6FF56EC25F0E552E5
:102D6000E552E552040EE66EFD0EDB28E66EFE0E21
:102D7000DB28E66E56EC25F0E552E552E552050EED
:102D8000E66EFD0EDB50020FE66EFE0EDB28E66EF1
:102D900056EC25F0E552E552E552E552E7CFD9FF72
:102DA0001200D9CFE6FFE1CFD9FF200EE66EFD0E6F
:102DB000DBCFE6FFFE0EDBCFE6FF56EC25F0E5525B
:102DC000E552E552200EE66EFD0EDB28E66EFE0EA5
:102DD000DBCFE6FF56EC25F0E552E552E552200E3A
:102DE000E66EFD0EDB50020FE66EFE0EDBCFE6FF59
:102DF00056EC25F0E552E552E552200EE66EFD0E4A
:102E0000DBCFE6FFFE0EDB28E66E56EC25F0E55242
:102E1000E552E552200EE66EFD0EDB28E66EFE0E54
:102E2000DB28E66E56EC25F0E552E552E552200E21
:102E3000E66EFD0EDB50020FE66EFE0EDB28E66E40
:102E400056EC25F0E552E552E552E552E7CFD9FFC1
:102E50001200D9CFE6FFE1CFD9FF010EE66EFD0EDD
:102E6000DBCFE6FFFE0EDBCFE6FF56EC25F0E552AA
:102E7000E552E552E66AFD0EDBCFE6FFFE0EDB28EB
:102E8000E66E56EC25F0E552E552E552020EE66E8E
:102E9000FD0EDB28E66EFE0EDB28E66E56EC25F016
:102EA000E552E552E552030EE66EFD0EDB28E66EB6
:102EB000FE0EDBCFE6FF56EC25F0E552E552E5527B
:102EC000040EE66EFD0EDB50020FE66EFE0EDB28F2
:102ED000E66E56EC25F0E552E552E552050EE66E3B
:102EE000FD0EDB50020FE66EFE0EDBCFE6FF56EC6A
:102EF00025F0E552E552E552E552E7CFD9FF120041
:102F0000D9CFE6FFE1CFD9FF010EE66EFD0EDB5013
:102F1000FE0FE66EFE0EDBCFE6FF56EC25F0E55227
:102F2000E552E552E66AFD0EDB50FE0FE66EFE0E40
:102F3000DB28E66E56EC25F0E552E552E552020E2E
:102F4000E66EFD0EDB04E66EFE0EDB28E66E56EC4A
:102F500025F0E552E552E552030EE66EFD0EDB0468
:102F6000E66EFE0EDBCFE6FF56EC25F0E552E552AD
:102F7000E552040EE66EFD0EDBCFE6FFFE0EDB280B
:102F8000E66E56EC25F0E552E552E552050EE66E8A
:102F9000FD0EDBCFE6FFFE0EDBCFE6FF56EC25F0A5
:102FA000E552E552E552E552E7CFD9FF1200D9CFFD
:102FB000E6FFE1CFD9FFFC0EDB50090A5BE0010A16
:102FC00051E00F0A47E0010A3DE0030A33E0010A3D
:102FD00029E0070A1FE0010A15E0030A0BE0010AD5
:102FE00052E1FD0EDBCFE6FFFE0EDBCFE6FFB5ECD8
:102FF00013F047D0FD0EDBCFE6FFFE0EDBCFE6FF82
:103000000BDC3FD0FD0EDBCFE6FFFE0EDBCFE6FF95
:103010004CDC37D0FD0EDBCFE6FFFE0EDBCFE6FF4C
:103020009CDC2FD0FD0EDBCFE6FFFE0EDBCFE6FFF4
:10303000ECDC27D0FD0EDBCFE6FFFE0EDBCFE6FF9C
:1030400022DD1FD0FD0EDBCFE6FFFE0EDBCFE6FF5D
:1030500072DD17D0FD0EDBCFE6FFFE0EDBCFE6FF05
:10306000C1DD0FD0FD0EDBCFE6FFFE0EDBCFE6FFAE
:10307000F7DD07D0FD0EDBCFE6FFFE0EDBCFE6FF70
:1030800046DEE552E552E552E7CFD9FF1200AFEC3C
:1030900024F00F01010E44194FE145514DE1280E76
:1030A000E66E020EE66E200EE66E020EE66E180E5C
:1030B000E66E020EE66E100EE66E020EE66E080E6C
:1030C000E66E020EE66E000EE66E020EE66EB5ECE1
:1030D00012F0006E0C0EE15E0050E66AE66AB9DEA0
:1030E000E552E5529E0EE66E7E0EE66E060EE66E2A
:1030F000E66ADEEC26F0E552E552E552E552920E24
:10310000E66E7E0EE66E050EE66E010EE66EDEECF7
:1031100026F0E552E552E552E552DEEC24F0E80EE9
:10312000E66E030EE66ED6EC3AF0E552E552AFECF1
:1031300024F00F01446B456B0D0EE66EE66A76ECEB
:1031400037F0E552E552F3CF00F0F4CF01F0F35041
:10315000F4100CE0020E0001806F816BAFEC24F0E4
:10316000010E0F01446F456B42EF1DF00B0E0F0176
:1031700041AF02D0D89003D0405D000E415901E329
:1031800034D1580EE66E020EE66E500EE66E020E5A
:10319000E66E480EE66E020EE66E400EE66E020E1B
:1031A000E66E380EE66E020EE66E300EE66E020E2B
:1031B000E66EB5EC12F0006E0C0EE15E0050010EF2
:1031C0000F014025E66EE66A44DEE552E552DEEC8C
:1031D00024F0C80EE66EE66AD6EC3AF0E552E55207
:1031E0000D0EE66EE66A76EC37F0E552E552F3CF67
:1031F00000F0F4CF01F0F350F4100EE0020E0001E5
:10320000806F816BAFEC24F0010E0F01446F456BB2
:10321000406B416B426B436BAFEC24F0880EE66E63
:10322000020EE66E800EE66E020EE66E780EE66E1A
:10323000020EE66E700EE66E020EE66E680EE66E2A
:10324000020EE66E600EE66E020EE66EB5EC12F051
:10325000006E0C0EE15E0050020E0F014025E66E7E
:10326000E66AF7DDE552E552DEEC24F0C80EE66EC4
:10327000E66AD6EC3AF0E552E5520D0EE66EE66AE5
:1032800076EC37F0E552E552F3CF00F0F4CF01F0E1
:10329000F350F4100EE0020E0001806F816BAFEC72
:1032A00024F0010E0F01446F456B406B416B426B84
:1032B000436BAFEC24F0580EE66E020EE66E500E35
:1032C000E66E020EE66E480EE66E020EE66E400EEA
:1032D000E66E020EE66E380EE66E020EE66E300EFA
:1032E000E66E020EE66EB5EC12F0006E0C0EE15EBC
:1032F0000050030E0F014025E66EE66AAADDE55296
:10330000E552DEEC24F0C80EE66EE66AD6EC3AF042
:10331000E552E5520D0EE66EE66A76EC37F0E552C0
:10332000E552F3CF00F0F4CF01F0F350F4100EE0CB
:10333000020E0001806F816BAFEC24F0010E0F01D3
:10334000446F456B406B416B426B436BAFEC24F0B9
:10335000B80EE66E020EE66EB00EE66E020EE66E79
:10336000A80EE66E020EE66EA00EE66E020EE66E89
:10337000980EE66E020EE66E900EE66E020EE66E99
:10338000B5EC12F0006E0C0EE15E0050040E0F0161
:103390004025E66EE66A5DDDE552E552DEEC24F09E
:1033A000C80EE66EE66AD6EC3AF0E552E5520D0E2E
:1033B000E66EE66A76EC37F0E552E552F3CF00F0C0
:1033C000F4CF01F0F350F4100EE0020E0001806F14
:1033D000816BAFEC24F0010E0F01446F456B406B25
:1033E000416B426B436BAFEC24F00F010C0E4019A4
:1033F00001E0E8D0415101E0E5D0280EE66E030E71
:10340000E66E200EE66E030EE66E180EE66E030EF6
:10341000E66E100EE66E030EE66E080EE66E030E06
:10342000E66E000EE66E030EE66EB5EC12F0006E70
:103430000C0EE15E00500D0EE66EE66A0ADDE55206
:10344000E552DEEC24F0C80EE66EE66AD6EC3AF001
:10345000E552E5520D0EE66EE66A76EC37F0E5527F
:10346000E552F3CF00F0F4CF01F0F350F4100EE08A
:10347000020E0001806F816BAFEC24F0010E0F0192
:10348000446F456B406B416B426B436BAFEC24F078
:10349000580EE66E030EE66E500EE66E030EE66EF6
:1034A000480EE66E030EE66E400EE66E030EE66E06
:1034B000380EE66E030EE66E300EE66E030EE66E16
:1034C000B5EC12F0006E0C0EE15E00500D0EE66ED3
:1034D000E66ABFDCE552E552DEEC24F0C80EE66E8B
:1034E000E66AD6EC3AF0E552E5520D0EE66EE66A73
:1034F00076EC37F0E552E552F3CF00F0F4CF01F06F
:10350000F350F4100EE0020E0001806F816BAFECFF
:1035100024F0010E0F01446F456B406B416B426B11
:10352000436BAFEC24F0880EE66E030EE66E800E61
:10353000E66E030EE66E780EE66E030EE66E700E15
:10354000E66E030EE66E680EE66E030EE66E600E25
:10355000E66E030EE66EB5EC12F0006E0C0EE15E48
:1035600000500D0EE66EE66A74DCE552E552DEECC4
:1035700024F0C80EE66EE66AD6EC3AF0E552E55263
:103580000D0EE66EE66A76EC37F0E552E552F3CFC3
:1035900000F0F4CF01F0F350F4100EE0020E000141
:1035A000806F816BAFEC24F0010E0F01446F456B0F
:1035B000406B416B426B436BAFEC24F0100E0F017C
:1035C000426F436B433501E35DD142510408000E65
:1035D000435501E357D10B0E41AF02D0D89003D031
:1035E000405D000E415901E24DD1280EE66E050EF8
:1035F000E66E200EE66E050EE66E180EE66E050E01
:10360000E66E100EE66E050EE66E080EE66E050E10
:10361000E66E000EE66E050EE66EB5EC12F0006E7C
:103620000C0EE15E005042CF00F043CF01F00006E7
:10363000000E015A0050E66EE66A62DCE552E55281
:10364000DEEC24F0C80EE66EE66AD6EC3AF0E552FF
:10365000E5520D0EE66EE66A76EC37F0E552E5527D
:10366000F3CF00F0F4CF01F0F350F4100EE0020EAF
:103670000001806F816BAFEC24F0010E0F01446FED
:10368000456B406B416B426B436BAFEC24F0580EC3
:10369000E66E050EE66E500EE66E050EE66E480E00
:1036A000E66E050EE66E400EE66E050EE66E380E10
:1036B000E66E050EE66E300EE66E050EE66EB5ECB5
:1036C00012F0006E0C0EE15E005042CF00F043CFCE
:1036D00001F0020E005E000E015A0050E66EE66A2E
:1036E0000FDCE552E552DEEC24F0C80EE66EE66A29
:1036F000D6EC3AF0E552E5520D0EE66EE66A76EC4F
:1037000037F0E552E552F3CF00F0F4CF01F0F3507B
:10371000F4100EE0020E0001806F816BAFEC24F01C
:10372000010E0F01446F456B406B416B426B436B65
:10373000AFEC24F0280EE66E050EE66E200EE66E67
:10374000050EE66E180EE66E050EE66E100EE66EBF
:10375000050EE66E080EE66E050EE66E000EE66ECF
:10376000050EE66EB5EC12F0006E0C0EE15E005038
:1037700042CF00F043CF01F0030E005E000E015A6D
:103780000050E66EE66A80EC17F0E552E552DEEC9A
:1037900024F0C80EE66EE66AD6EC3AF0E552E55241
:1037A0000D0EE66EE66A76EC37F0E552E552F3CFA1
:1037B00000F0F4CF01F0F350F4100EE0020E00011F
:1037C000806F816BAFEC24F0010E0F01446F456BED
:1037D000406B416B426B436BAFEC24F0880EE66E9E
:1037E000050EE66E800EE66E050EE66E780EE66E4F
:1037F000050EE66E700EE66E050EE66E680EE66E5F
:10380000050EE66E600EE66E050EE66EB5EC12F085
:10381000006E0C0EE15E005042CF00F043CF01F08D
:10382000040E005E000E015A0050E66EE66A80EC5F
:1038300017F0E552E552DEEC24F0C80EE66EE66ABB
:10384000D6EC3AF0E552E5520D0EE66EE66A76ECFD
:1038500037F0E552E552F3CF00F0F4CF01F0F3502A
:10386000F4100EE0020E0001806F816BAFEC24F0CB
:10387000010E0F01446F456B406B416B426B436B14
:10388000AFEC24F00F01433504E242510408000E6E
:10389000435501E2FCD00B0E41AF02D0D89003D0CB
:1038A000405D000E415901E2F2D0426B436B280E9D
:1038B000E66E040EE66E200EE66E040EE66E180E40
:1038C000E66E040EE66E100EE66E040EE66E080E50
:1038D000E66E040EE66E000EE66E040EE66EB5ECC5
:1038E00012F0006E0C0EE15E0050010E0F01422539
:1038F000E66EE66A29EC17F0E552E552DEEC24F0BC
:10390000C80EE66EE66AD6EC3AF0E552E5520D0EC8
:10391000E66EE66A76EC37F0E552E552F3CF00F05A
:10392000F4CF01F0F350F4100EE0020E0001806FAE
:10393000816BAFEC24F0010E0F01446F456B406BBF
:10394000416B426B436BAFEC24F0580EE66E040EF5
:10395000E66E500EE66E040EE66E480EE66E040E3F
:10396000E66E400EE66E040EE66E380EE66E040E4F
:10397000E66E300EE66E040EE66EB5EC12F0006EEA
:103980000C0EE15E0050010E0F014225E66EE66A64
:1039900029EC17F0E552E552DEEC24F0C80EE66E95
:1039A000E66AD6EC3AF0E552E5520D0EE66EE66AAE
:1039B00076EC37F0E552E552F3CF00F0F4CF01F0AA
:1039C000F350F4100EE0020E0001806F816BAFEC3B
:1039D00024F0010E0F01446F456B406B416B426B4D
:1039E000436BAFEC24F0880EE66E040EE66E800E9C
:1039F000E66E040EE66E780EE66E040EE66E700E4F
:103A0000E66E040EE66E680EE66E040EE66E600E5E
:103A1000E66E040EE66EB5EC12F0006E0C0EE15E82
:103A20000050010E0F014225E66EE66A29EC17F000
:103A3000E552E552DEEC24F0C80EE66EE66AD6ECFE
:103A40003AF0E552E5520D0EE66EE66A76EC37F096
:103A5000E552E552F3CF00F0F4CF01F0F350F4104B
:103A60000EE0020E0001806F816BAFEC24F0010EBE
:103A70000F01446F456B406B416B426B436BAFEC86
:103A800024F00F01406B416B426B436B1200040E3C
:103A90004025406F000E4121416F040E425F000E31
:103AA000435B12000F01080E461907E1475105E17B
:103AB000040E486F496B4A6F4B6B070E461908E1BD
:103AC000475106E1030E486F496B040E4A6F4B6B7A
:103AD000060E461908E1475106E1020E486F496B90
:103AE000040E4A6F4B6B050E461908E1475106E17B
:103AF000010E486F496B040E4A6F4B6B040E46195A
:103B000007E1475105E1486B496B040E4A6F4B6B67
:103B1000030E461907E1475105E1486B496B030E57
:103B20004A6F4B6B020E461907E1475105E1486B9E
:103B3000496B020E4A6F4B6B010E461907E1475164
:103B400005E1486B496B010E4A6F4B6B46514711BB
:103B500004E1486B496B4A6B4B6B1200D9CFE6FF0F
:103B6000E1CFD9FFFD0EDBCF02F0FE0EDBCF03F07D
:103B7000010EE76EFB0EDBCF08F0FC0EDBCF09F089
:103B8000E7500826000E0922FD0EDB50085C066E89
:103B9000FE0EDB500958076E02C0E6FF03C0E6FFC9
:103BA00006C0E6FFE66E1FEC40F0E552E7CF07F0F7
:103BB000E552E7CF06F0E552E7CF03F0E552E7CF55
:103BC00002F0F3CF04F0F4CF05F0F3CF22F0F4CFFE
:103BD00023F006C027F007C028F0FDEC33F007AE55
:103BE00004D01E6C1F1E000E1F2202501E24006EE9
:103BF00003501F20016E00C0F3FFF46EE552E7CFC3
:103C0000D9FF1200D9CFE6FFE1CFD9FF040EE1269C
:103C1000AFEC24F00F01010E44192CE145512AE1CB
:103C20008D0EE66E7E0EE66E060EE66EE66ADEEC43
:103C300026F0E552E552E552E5529E0EE66E7E0E06
:103C4000E66E040EE66E010EE66EDEEC26F0E55240
:103C5000E552E552E552DEEC24F0E80EE66E030E86
:103C6000E66ED6EC3AF0E552E552AFEC24F00F01E7
:103C7000446B456B0F01000ED8806855000E6955E6
:103C800013E2020E0001806F816B0F01686B696B9C
:103C9000AFEC24F0010E0F01446F456B466B476B90
:103CA000486B496B4A6B4B6B400EE66E0BEC22F097
:103CB000E552DE6ADD6ADECF00F0DDCF01F00134CF
:103CC00004E200500708000E015412E3DECFE9FFC2
:103CD000DDCFEAFFB00EE926030EEA22EF50E66ED2
:103CE00023EC22F0E552DF2A010EE5E3DB2AE3D7DD
:103CF000480EE66E0BEC22F0E552DE6ADD6ADECF9E
:103D000000F0DDCF01F0013404E200500708000E9E
:103D1000015412E3DECFE9FFDDCFEAFFA80EE9266A
:103D2000030EEA22EF50E66E23EC22F0E552DF2A82
:103D3000010EE5E3DB2AE3D7500EE66E0BEC22F032
:103D4000E552DE6ADD6ADECF00F0DDCF01F001343E
:103D500004E200500708000E015412E3DECFE9FF31
:103D6000DDCFEAFFA00EE926030EEA22EF50E66E51
:103D700023EC22F0E552DF2A010EE5E3DB2AE3D74C
:103D8000580EE66E0BEC22F0E552DE6ADD6ADECFFD
:103D900000F0DDCF01F0013404E200500708000E0E
:103DA000015412E3DECFE9FFDDCFEAFF980EE926EA
:103DB000030EEA22EF50E66E23EC22F0E552DF2AF2
:103DC000010EE5E3DB2AE3D7600EE66E0BEC22F092
:103DD000E552DE6ADD6ADECF00F0DDCF01F00134AE
:103DE00004E200500708000E015412E3DECFE9FFA1
:103DF000DDCFEAFF900EE926030EEA22EF50E66ED1
:103E000023EC22F0E552DF2A010EE5E3DB2AE3D7BB
:103E10000F01473504E246510008000E475513E3F1
:103E2000090EE66EE66A060EE66EE66A97DEE55273
:103E3000E552E552E552F3CFFDF4F4CFFEF4F3CFB3
:103E400046FFF4CF47FF0F01473501E376D14651D6
:103E50000008000E475501E370D1020E46CFDBFF8C
:103E6000030E47CFDBFF1EDE48CFE6FF070EE66EF0
:103E7000E66A56EC25F0E552E552E5524ACFE6FFF8
:103E8000070EE66E010EE66E56EC25F0E552E552A1
:103E9000E5520F014607000E475B04DE48CFE6FF00
:103EA000080EE66EE66A56EC25F0E552E552E5525C
:103EB0004ACFE6FF080EE66E010EE66E56EC25F0E0
:103EC000E552E552E55248CFE6FF060EE66EE66A99
:103ED00056EC25F0E552E552E5524ACFE6FF060ED4
:103EE000E66E010EE66E56EC25F0E552E552E5521F
:103EF0000F014607000E475BD5DD48CFE6FF090EF0
:103F0000E66EE66A56EC25F0E552E552E5524ACFF8
:103F1000E6FF090EE66E010EE66E56EC25F0E55260
:103F2000E552E55248CFE6FF050EE66EE66A56EC2E
:103F300025F0E552E552E5524ACFE6FF050EE66E62
:103F4000010EE66E56EC25F0E552E552E5520F0102
:103F50004607000E475BA6DD48CFE6FF0A0EE66E79
:103F6000E66A56EC25F0E552E552E5524ACFE6FF07
:103F70000A0EE66E010EE66E56EC25F0E552E552AD
:103F8000E55248CFE6FF040EE66EE66A56EC25F0F1
:103F9000E552E552E5524ACFE6FF040EE66E010E09
:103FA000E66E56EC25F0E552E552E5520F01460764
:103FB000000E475B77DD48CFE6FF0B0EE66EE66A44
:103FC00056EC25F0E552E552E5524ACFE6FF0B0EDE
:103FD000E66E010EE66E56EC25F0E552E552E5522E
:103FE00048CFE6FF030EE66EE66A56EC25F0E55292
:103FF000E552E5524ACFE6FF030EE66E010EE66E8D
:1040000056EC25F0E552E552E5520F014607000E49
:10401000475B48DD48CFE6FF0C0EE66EE66A56ECDD
:1040200025F0E552E552E5524ACFE6FF0C0EE66E6A
:10403000010EE66E56EC25F0E552E552E55248CF0A
:10404000E6FF020EE66EE66A56EC25F0E552E55212
:10405000E5524ACFE6FF020EE66E010EE66E56EC22
:1040600025F0E552E552E5520F014607000E475B89
:1040700019DD48CFE6FF0D0EE66EE66A56EC25F038
:10408000E552E552E5524ACFE6FF0D0EE66E010E0F
:10409000E66E56EC25F0E552E552E55248CFE6FFD4
:1040A000010EE66EE66A56EC25F0E552E552E55261
:1040B0004ACFE6FF010EE66EE66E56EC25F0E552BD
:1040C000E552E5520F014607000E475BEBDC48CF97
:1040D000E6FF0E0EE66EE66A56EC25F0E552E55276
:1040E000E5524ACFE6FF0E0EE66E010EE66E56EC86
:1040F00025F0E552E552E55248CFE6FFE66AE66A6A
:1041000056EC25F0E552E552E5524ACFE6FFE66A65
:10411000010EE66E56EC25F0E552E552E552DEEC76
:1041200024F0AFEC24F0020EDBCF46FF030EDBCF12
:1041300047FF0F01465F000E475B040EE15C02E2A1
:0E414000E16AE552E16EE552E7CFD9FF1200C9
:02414E00D9CFC7
:10415000E6FFE1CFD9FF040EE126DE6ADD6ADECF9D
:1041600000F0DDCF01F0FE0EDB50000101AE02D009
:10417000D89003D0005C000E01581DE2020EDB6AED
:10418000030EDB6A020EDBCF00F0030EDBCF01F083
:10419000D890015004E6010E005C000E015806E2C2
:1041A000020EDB2A030EEEE3DB2AECD7DF2A010E38
:1041B000D6E3DB2AD4D7040EE15C02E2E16AE552E1
:1041C000E16EE552E7CFD9FF1200D9CFE6FFE1CF8C
:1041D000D9FF040EE126DE6ADD6ADECF00F0DDCF16
:1041E00001F0026A036A01AE02D002680368D95086
:1041F000FB0FE96EFF0EDA20EA6EEE50005CEE5027
:104200000158EE500258EE5003581DE2020EDB6AD0
:10421000030EDB6A020EDBCF00F0030EDBCF01F0F2
:10422000D890015004E6A00E005C000E015806E292
:10423000020EDB2A030EEEE3DB2AECD7DF2A010EA7
:10424000CCE3DB2ACAD7040EE15C02E2E16AE55264
:10425000E16EE552E7CFD9FF1200D9CFE6FFE1CFFB
:10426000D9FF0F0E8116FE0EDB50F00B81128186F6
:10427000010EE66EE66AE66AE66AA7DFE552E552F7
:10428000E552E5528196010EE66EE66AE66AE66A56
:104290009CDFE552E552E552E5520F0E8116FE0E07
:1042A000DB38F00B81128186010EE66EE66AE66A63
:1042B000E66A8BDFE552E552E552E5528196010E42
:1042C000E66EE66AE66AE66A80DFE552E552E552A6
:1042D000E552E552E7CFD9FF1200D9CFE6FFE1CF93
:1042E000D9FFE652190EE66EE66AE66AE66A6DDF07
:1042F000E552E552E552E5520F0E8116F80E811691
:104300000F0E8116300E81128186010EE66EE66A6E
:10431000E66AE66A5ADFE552E552E552E5528196D1
:10432000010EE66EE66AE66AE66A4FDFE552E5529E
:10433000E552E5520F0E8116300E81128186010E74
:10434000E66EE66AE66AE66A40DFE552E552E55265
:10435000E5528196010EE66EE66AE66AE66A35DFA8
:10436000E552E552E552E5520F0E8116300E8112EC
:104370008186010EE66EE66AE66AE66A26DFE552A7
:10438000E552E552E5528196010EE66EE66AE66A6E
:10439000E66A1BDFE552E552E552E5520F0E811643
:1043A000818A8186010EE66EE66AE66AE66A0DDFBC
:1043B000E552E552E552E5528196010EE66EE66A57
:1043C000E66AE66A02DFE552E552E552E552280E5A
:1043D000E66E43DFE5520C0EE66E3FDFE552E55236
:1043E000E552E7CFD9FF1200D9CFE6FFE1CFD9FFE1
:1043F0000F0E8116FE0EDB5081128186010EE66ED5
:10440000A6DEE5528196010EE66EA1DEE552E5528A
:10441000E7CFD9FF1200D9CFE6FFE1CFD9FF8194D2
:10442000010EE66E94DEE552FE0EDBCFE6FFDCDF2A
:10443000E552FE0EDB38F00BE66ED6DFE552E552B4
:10444000E7CFD9FF1200D9CFE6FFE1CFD9FF8184B2
:10445000010EE66E7CDEE552FE0EDBCFE6FFC4DF2A
:10446000E552FE0EDB38F00BE66EBEDFE5528194BE
:10447000E552E7CFD9FF1200D9CFE6FFE1CFD9FF50
:10448000FE0EDBCFE6FFDFDFE552E552E7CFD9FFD7
:104490001200D9CFE6FFE1CFD9FF020EE126DE6A96
:1044A000DD6ADECF00F0DDCF01F0D890015004E6E8
:1044B000080E005C000E015815E2FD0EDBCF00F087
:1044C000FE0EDBCF01F0DE500024E96EDD5001204E
:1044D000EA6EEF50E66EB7DFE552DF2A010EE1E348
:1044E000DB2ADFD7020EE15C02E2E16AE552E16E0F
:1044F000E552E7CFD9FF1200D9CFE6FFE1CFD9FFD0
:10450000FD0EDBCFF6FFFE0EDBCFF7FF0800F55008
:104510000FE0FD0EDBCFF6FFDB2AFE0EDBCFF7FF51
:1045200001E3DB2A0800F550E66EA6DFE552E8D786
:10453000E552E7CFD9FF1200D9CFE6FFE1CFD9FF8F
:10454000050EE126010EF36EDB6E020EDB6A030E32
:10455000DB6A040EDB6ADF6ADFCF00F0016A00BEAF
:104560000168FB0EDBCF02F0FC0EDBCF03F0015045
:104570000318E8AE02D0033404D00250005C0350AC
:1045800001582DE2FD0EDBCF00F0FE0EDBCF01F077
:10459000026A036A01AE02D002680368D950010FB3
:1045A000E96EDACFEAFF00C025F001C026F002C0B4
:1045B00027F003C028F0EECF20F0EECF21F0EECFB1
:1045C00022F0EFCF23F0BCEC3FF01FC0EDFF1EC088
:1045D000EDFF1DC0EDFF1CC0EFFFDF2ABDD7010EB0
:1045E000DBCF00F0020EDBCF01F0030EDBCF02F0D9
:1045F000040EDBCF03F000C020F001C021F002C0A8
:1046000022F003C023F0050EE15C02E2E16AE5520C
:10461000E16EE552E7CFD9FF1200D9CFE6FFE1CF37
:10462000D9FF020EE126DF6AFB0EDBCF00F0FC0EA5
:10463000DBCF01F0FD0EDBCF02F0FE0EDBCF03F08F
:10464000005001100210031005E1300EE66E14DF79
:10465000E552F4D0D950FB0FE96EFF0EDA20EA6E76
:10466000D890030EEB50000A08E6000EEE5C000E38
:10467000EE58000EEE58000EEE5815E22D0EE66EC6
:10468000FBDEE552D950FB0FE96EFF0EDA20EA6E31
:10469000000EEE6CEF1EEE22EF1EEE22EF1EEF225A
:1046A000ED52ED52ED52DE520A0EDD6E010EDBCF01
:1046B00000F0000EE76E0018E8AE02D0003403D020
:1046C000E750D880005401E3B9D0010EDB04046E3A
:1046D000056A04BE056804C0E6FF05C0E6FF0A0ED1
:1046E000E66EE66A29DFE552E552E552E55220C062
:1046F00000F021C001F022C002F023C003F020C06E
:1047000025F021C026F022C027F023C028F0FB0EA0
:10471000DBCF20F0FC0EDBCF21F0FD0EDBCF22F053
:10472000FE0EDBCF23F0F4EC3FF0205021102210DE
:10473000231041E0010EDF6EDB04086E096A08BE3B
:10474000096808C0E6FF09C0E6FF0A0EE66EE66AE1
:10475000F3DEE552E552E552E55220C004F021C0F7
:1047600005F022C006F023C007F020C025F021C0CC
:1047700026F022C027F023C028F0FB0EDBCF20F06C
:10478000FC0EDBCF21F0FD0EDBCF22F0FE0EDBCFE7
:1047900023F0F4EC3FF020C000F021C001F022C073
:1047A00002F023C003F0300E0026000E0122022288
:1047B0000322005003D0DF5004E0300EE66E5CDED2
:1047C000E552010EDB04046E056A04BE056804C0F0
:1047D000E6FF05C0E6FF0A0EE66EE66AADDEE552CC
:1047E000E552E552E55220C000F021C001F022C0A0
:1047F00002F023C003F0D950FB0FE96EFF0EDA2060
:10480000EA6E20C025F021C026F022C027F023C088
:1048100028F0EECF20F0EECF21F0EECF22F0EFCF58
:1048200023F0F4EC3FF01FC0EDFF1EC0EDFF1DC0F4
:10483000EDFF1CC0EFFF010EDB0638D7020EE15C76
:1048400002E2E16AE552E16EE552E7CFD9FF1200DC
:10485000D9CFE6FFE1CFD9FFE652FE0EDB50010AC9
:1048600004E0010A04E1800E01D0C00EDF6EFD0EEF
:10487000DB50DF24DF6EDFCFE6FFCDDDE552E55212
:10488000E552E7CFD9FF1200010EE66EC4DDE55216
:10489000E66AE66ADDDFE552E5521200D9CFE6FFAF
:1048A000E1CFD9FFFD0EDBCFE6FFFE0EDBCFE6FF4B
:1048B000CFDFE552E552D950F90FE96EFF0EDA204D
:1048C000EA6EEECFE6FFEECFE6FFEECFE6FFEFCFEC
:1048D000E6FFA3DEE552E552E552E552E552E7CFA9
:1048E000D9FF1200D9CFE6FFE1CFD9FFFD0EDBCF14
:1048F000E6FFFE0EDBCFE6FFABDFE552E552FB0E37
:10490000DBCFE6FFFC0EDBCFE6FFF6DDE552E5523E
:10491000E552E7CFD9FF1200D9CFE6FFE1CFD9FFAB
:10492000FCC000F0FDC001F0040ED8900036013646
:10493000E806FBE1910E0026040E01220050000162
:10494000FE25E96E0150FF21EA6EFE0EDBCFEFFF80
:10495000FE2B000EFF23E552E7CFD9FF1200D9CF7F
:10496000E6FFE1CFD9FFE652DF6ADFCF00F0100E9D
:10497000E76E0018E8AE02D0E73402D0E750005CE2
:1049800018E2DFCFE9FFEA6AE9BEEA68910EE9269C
:10499000040EEA22200EEF6EDFCFE9FFEA6AE9BEDD
:1049A000EA68A10EE926040EEA22200EEF6EDF2A45
:1049B000DCD7E552E552E7CFD9FF1200D9CFE6FFA9
:1049C000E1CFD9FFE652E66AE66A42DFE552E552F8
:1049D000DF6A100EDF5C0CE2DF50EA6A910FE96ECD
:1049E000040EEA22EF50E66E47DDE552DF2AF1D7EA
:1049F000E66A010EE66E2CDFE552E552DF6A100E24
:104A0000DF5C0CE2DF50EA6AA10FE96E040EEA22D5
:104A1000EF50E66E31DDE552DF2AF1D7E552E5527F
:104A2000E7CFD9FF1200D9CFE6FFE1CFD9FFE65299
:104A300004019051010A1BE0010A32E1E66AE66ACC
:104A400007DFE552E552DF6A100EDF5C0CE2DF5053
:104A5000EA6A910FE96E040EEA22EF50E66E0CDD71
:104A6000E552DF2AF1D70401010E906F1AD0E66AF1
:104A7000010EE66EEDDEE552E552DF6A100EDF5CF8
:104A80000CE2DF50EA6AA10FE96E040EEA22EF5051
:104A9000E66EF2DCE552DF2AF1D70401906B01D01B
:104AA000906BE552E552E7CFD9FF1200D9CFE6FF70
:104AB000E1CFD9FFFE0EDB50010B0001FC6FFD6B57
:104AC000FD0EDB500F0BFE6FFF6BFCC000F0FDC056
:104AD00001F0040ED89000360136E806FBE1910E95
:104AE0000026040E012200500001FE25E96E01504F
:104AF000FF21EA6EFC0EDBCFEFFFE552E7CFD9FFD7
:104B00001200D9CFE6FFE1CFD9FFFE0EDB50010B3B
:104B10000001FC6FFD6BFD0EDB500F0BFE6FFF6B9A
:104B2000FCC000F0FDC001F0050ED8900036013643
:104B3000E806FBE1B10E0026040E0122020E226EF1
:104B4000236AFEC027F0FFC028F050EC34F000507C
:104B50002024E96E01502120EA6EFB0EDBCFEEFF30
:104B6000FC0EDBCFEDFFE552E7CFD9FF1200D9CF26
:104B7000E6FFE1CFD9FF020EE126DF6AFE0EDB5031
:104B8000010B0001FC6FFD6BFD0EDB500F0BFE6F88
:104B9000FF6BF90EDBCF00F0FA0EDBCF01F0FB0E5E
:104BA000DBCF02F0FC0EDBCF03F00050011002104F
:104BB000031005E1300EE66EAFDEE552F5D0D950B8
:104BC000F90FE96EFF0EDA20EA6ED890030EEB5073
:104BD000000A08E6000EEE5C000EEE58000EEE58DD
:104BE000000EEE5815E22D0EE66E96DEE552D95017
:104BF000F90FE96EFF0EDA20EA6E000EEE6CEF1E82
:104C0000EE22EF1EEE22EF1EEF22ED52ED52ED529C
:104C1000DE520A0EDD6E010EDBCF00F0000EE76EF5
:104C20000018E8AE02D0003403D0E750D88000541A
:104C300001E3BAD0010EDB04046E056A04BE056808
:104C400004C0E6FF05C0E6FF0A0EE66EE66A74DC05
:104C5000E552E552E552E55220C000F021C001F0D6
:104C600022C002F023C003F020C025F021C026F0AE
:104C700022C027F023C028F0F90EDBCF20F0FA0E77
:104C8000DBCF21F0FB0EDBCF22F0FC0EDBCF23F0DD
:104C9000F4EC3FF0205021102210231041E0010ECF
:104CA000DF6EDB04086E096A08BE096808C0E6FF0B
:104CB00009C0E6FF0A0EE66EE66A3EDCE552E55202
:104CC000E552E55220C004F021C005F022C006F0F4
:104CD00023C007F020C025F021C026F022C027F015
:104CE00023C028F0F90EDBCF20F0FA0EDBCF21F045
:104CF000FB0EDBCF22F0FC0EDBCF23F0F4EC3FF019
:104D000020C000F021C001F022C002F023C003F057
:104D1000300E0026000E012202220322005003D092
:104D2000DF5004E0300EE66EF7DDE552010EDB04E5
:104D3000046E056A04BE056804C0E6FF05C0E6FF10
:104D40000A0EE66EE66A9CEC22F0E552E552E55268
:104D5000E55220C000F021C001F022C002F023C0C3
:104D600003F0D950F90FE96EFF0EDA20EA6E20C089
:104D700025F021C026F022C027F023C028F0EECF76
:104D800020F0EECF21F0EECF22F0EFCF23F0F4ECC5
:104D90003FF01FC0EDFF1EC0EDFF1DC0EDFF1CC0AA
:104DA000EFFF010EDB0637D7020EE15C02E2E16A9B
:104DB000E552E16EE552E7CFD9FF1200D9CFE6FF09
:104DC000E1CFD9FFFE0EDB50010B0001FC6FFD6B44
:104DD000FD0EDB500F0BFE6FFF6BFB0EDBCFF6FF04
:104DE000FC0EDBCFF7FF0800F5500FE0FB0EDBCF2A
:104DF000F6FFDB2AFC0EDBCFF7FF01E3DB2A08001E
:104E0000F550E66E89DDE552E8D7E552E7CFD9FFE8
:104E10001200D9CFE6FFE1CFD9FFE652E66AE66A93
:104E200017DDE552E552DF6A100EDF5C13E2EA6A35
:104E3000DF34FE0BEA36E96EB10EE926040EEA22F3
:104E4000EECFE6FFEFCFE6FF49EC22F0E552E55268
:104E5000DF2AEAD7E66A010EE66EFADCE552E55291
:104E6000DF6A100EDF5C13E2EA6ADF34FE0BEA361B
:104E7000E96ED10EE926040EEA22EECFE6FFEFCF6F
:104E8000E6FF49EC22F0E552E552DF2AEAD7E55287
:084E9000E552E7CFD9FF120043
:084E9800D9CFE6FFE1CFD9FFFD
:104EA000020EE126400EE66E0BEC22F0E552DE6AC1
:104EB000DD6ADECF00F0DDCF01F0013404E2005006
:104EC0000708000E015412E3DECFE9FFDDCFEAFF51
:104ED000900EE926050EEA22EF50E66E23EC22F052
:104EE000E552DF2A010EE5E3DB2AE3D7480EE66E42
:104EF0000BEC22F0E552DE6ADD6ADECF00F0DDCF9A
:104F000001F0013404E200500708000E015412E3DE
:104F1000DECFE9FFDDCFEAFF980EE926050EEA2293
:104F2000EF50E66E23EC22F0E552DF2A010EE5E3B6
:104F3000DB2AE3D7500EE66E0BEC22F0E552DE6A78
:104F4000DD6ADECF00F0DDCF01F0013404E2005075
:104F50000708000E015412E3DECFE9FFDDCFEAFFC0
:104F6000A00EE926050EEA22EF50E66E23EC22F0B1
:104F7000E552DF2A010EE5E3DB2AE3D7580EE66EA1
:104F80000BEC22F0E552DE6ADD6ADECF00F0DDCF09
:104F900001F0013404E200500708000E015412E34E
:104FA000DECFE9FFDDCFEAFFA80EE926050EEA22F3
:104FB000EF50E66E23EC22F0E552DF2A010EE5E326
:104FC000DB2AE3D7600EE66E0BEC22F0E552DE6AD8
:104FD000DD6ADECF00F0DDCF01F0013404E20050E5
:104FE0000708000E015412E3DECFE9FFDDCFEAFF30
:104FF000B00EE926050EEA22EF50E66E23EC22F011
:10500000E552DF2A010EE5E3DB2AE3D7680EE66E00
:105010000BEC22F0E552DE6ADD6ADECF00F0DDCF78
:1050200001F0013404E200500708000E015412E3BD
:10503000DECFE9FFDDCFEAFFB80EE926050EEA2252
:10504000EF50E66E23EC22F0E552DF2A010EE5E395
:10505000DB2AE3D7020EE15C02E2E16AE552E16E8F
:10506000E552E7CFD9FF1200D9CFE6FFE1CFD9FF54
:10507000FD0EDBCF02F0FE0EDBCF03F002C0E6FF39
:1050800003C0E6FF1FEC40F0E552E7CF03F0E55226
:10509000E7CF02F0F3CF0CF0F4CF0DF0F3CF22F016
:1050A000F4CF23F079EC32F021C008F022C009F0EF
:1050B00023C00AF024C00BF0FB0EDBCF18F0FC0E6F
:1050C000DBCF19F0FD0EDB50185C166EFE0EDB50C8
:1050D0001958176E16C022F0236E79EC32F021C0F9
:1050E00012F022C013F023C014F024C015F0266A79
:1050F000276A800E286E3F0E296E8DEC32F021C09B
:105100000EF022C00FF023C010F024C011F021C017
:1051100026F022C027F023C028F024C029F008C0C0
:1051200021F009C022F00AC023F00BC024F076EC75
:1051300033F021C004F022C005F023C006F024C0E3
:1051400007F0266A276A286A470E296E23EC33F097
:105150007DEC34F002502224006E03502320016EB7
:1051600000C0F3FFF46EE552E7CFD9FF1200D9CFAC
:10517000E6FFE1CFD9FF020EE126230EE66EE66AD6
:10518000020EE66EE66A70DFE552E552E552E55240
:10519000010EF3CFDBFF960EE66EE66AD6EC3AF030
:1051A000E552E552010EDBCF00F0040EE76E001869
:1051B000E8AE02D0E73402D0E750005C04E2010E12
:1051C000DBCFE7F503D00501200EE76F100E0201DB
:1051D000F56FF66B200EF6AF02D0D89003D0F55DD8
:1051E000000EF65966E2C80EF525E96E050EF621A9
:1051F000EA6EEF50020809E0C80EF525E96E050ECB
:10520000F621EA6EEF50030850E11F0EF6AF02D010
:10521000D89003D0F55D000EF6590DE2010EEA6A52
:10522000F525E96EF651EA22C80EE926050EEA22B6
:10523000EFCFDFFF02D0200EDF6EF5C2E9FFF6C22E
:10524000EAFFE906000EEA5AC80EE926050EEA2230
:10525000EFCF00F0020EE76E0018E8AE02D0E734A0
:1052600002D0E750005C03E2010EF36E32D0C80EAC
:10527000F525E96E050EF621EA6EEF50E66EF5C2F1
:10528000E9FFF6C2EAFFE906000EEA5AC80EE9266F
:10529000050EEA22E552E750EF6EC80EF525E96EDD
:1052A000050EF621EA6EDFCFEFFFF52B000EF62399
:1052B00091D70501200ED76F020EE76ED819E8AE20
:1052C00002D0E73402D0E750D85D02E2200ED86F5A
:1052D000F36AF46A020EE15C02E2E16AE552E16E11
:1052E000E552E7CFD9FF1200D9CFE6FFE1CFD9FFD2
:1052F000020EE126650E0501EC6FED6BE86BE96BC4
:105300000201F76BF86BF96BFA6BFB6BFC6BFD6BD7
:10531000FE6BDE6ADD6ADECF00F0DDCF01F0013426
:1053200004E200500608000E01540FE3DECFE9FF4F
:10533000DDCFEAFFC80EE926050EEA22200EEF6E49
:10534000DF2A010EE8E3DB2AE6D70D0EDE6EDD6A0A
:10535000DECF00F0DDCF01F0013404E20050100890
:10536000000E01540FE3DECFE9FFDDCFEAFFC80EE8
:10537000E926050EEA22200EEF6EDF2A010EE8E391
:10538000DB2AE6D70501D96B120EDE6EDD6ADECFB1
:1053900000F0DDCF01F0013404E200501F08000EE0
:1053A00001540FE3DECFE9FFDDCFEAFFC80EE926A7
:1053B000050EEA22200EEF6EDF2A010EE8E3DB2A5B
:1053C000E6D7020EE15C02E2E16AE552E16EE552E7
:1053D000E7CFD9FF1200CBDEF3CFF7F2F4CFF8F22C
:1053E0000501E82B000EE923E8C500F0E9C501F04E
:1053F000640E276E286AE8C522F0E9C523F0FDECAB
:1054000033F022C000F023C001F0026A036A01AE4B
:1054100002D00268036800C0E6FF01C0E6FF02C0D8
:10542000E6FF03C0E6FF0D0EE66EE66AB7EC25F078
:10543000046E060EE15E0450E8C500F0E9C501F017
:10544000640E276E286AE8C522F0E9C523F0FDEC5A
:1054500033F01EC000F01FC001F00A0E276E286A4C
:105460001EC022F01FC023F0FDEC33F022C000F07C
:1054700023C001F0026A036A01AE02D00268036829
:1054800000C0E6FF01C0E6FF02C0E6FF03C0E6FF82
:105490000E0EE66EE66AB7EC25F0046E060EE15ECF
:1054A0000450E8C500F0E9C501F0640E276E286AD3
:1054B000E8C522F0E9C523F0FDEC33F01EC000F092
:1054C0001FC001F00A0E276E286A1EC022F01FC0FE
:1054D00023F0FDEC33F01EC000F01FC001F0026AA3
:1054E000036A01AE02D00268036800C0E6FF01C093
:1054F000E6FF02C0E6FF03C0E6FF0F0EE66EE66AB7
:10550000B7EC25F0046E060EE15E04500201FD6B5F
:10551000FE6BF96BFA6B200EFAAF02D0D89003D075
:10552000F95D000EFA5947E2C80EF925E96E050E3D
:10553000FA21EA6EEFCF00F0020EE76E0018E8AE37
:1055400002D0E73402D0E750005C07E2C80EF9252C
:10555000E96E050EFA21EA6EEF70100EF91905E1F9
:10556000FA5103E1010EFD6FFE6B0D0EFAAF02D092
:10557000D89003D0F95D000EFA5907E3FA3516E228
:10558000F9510F08000EFA5511E2C80EF925E96E1F
:10559000050EFA21EA6EEF50E66EF9C2E6FFFDC293
:1055A000E6FF56EC25F0E552E552E5520201F92BF3
:1055B000000EFA23B0D7010EF71906E1F85104E105
:1055C000670E0501EC6FED6BE70E0501E81906E1CA
:1055D000030EE91903E1680EEC6FED6BDEEF24F0CA
:1055E000D9CFE6FFE1CFD9FF020EE126680E050113
:1055F000EC1901E1ED5101E11ED1670EEC1901E159
:10560000ED5101E1E5D0660EEC1901E1ED5101E14A
:1056100082D0650EEC1901E0E9D1ED5101E0E6D14F
:10562000AFEC24F0CA0EE66E7E0EE66E010EE66E5C
:10563000E66ADEEC26F0E552E552E552E552BC0E94
:10564000E66E7E0EE66E010EE66EE66EDEEC26F08F
:10565000E552E552E552E552700EE66E0BEC22F093
:10566000E552DE6ADD6ADECF00F0DDCF01F0013405
:1056700004E200500708000E015412E3DECFE9FFF8
:10568000DDCFEAFFC00EE926050EEA22EF50E66EF6
:1056900023EC22F0E552DF2A010EE5E3DB2AE3D713
:1056A000060EE66E0F0EE66E010EE66E56EC25F067
:1056B000E552E552E552050EE66EE66A76EC37F005
:1056C000E552E552F3CF00F0F4CF01F0F350F410BF
:1056D00001E18CD1660E0501EC6FED6B4CEC27F00F
:1056E000E66A010EE66EE66E56EC25F0E552E552EE
:1056F000E552200EE66E010EE66EE66A56EC25F0E7
:10570000E552E552E552DEEC24F0960EE66EE66ACE
:10571000D6EC3AF08DD0010ED880EA57000EEB5748
:10572000050EE66EE66AA5EC37F0E552E552F3CFDA
:1057300000F0F4CF01F0F350F41048E00501010E41
:10574000EA1944E1EB5142E1200EE66E010EE66EED
:10575000E66E56EC25F0E552E552E552E66A010E9A
:10576000E66EE66A56EC25F0E552E552E552050193
:10577000C96B200ED96F0201FB6BFC6B040EFCAFF2
:1057800002D0D89003D0FB5D000EFC5906E223DE68
:105790000201FB2B000EFC23F1D70501200EC96F7F
:1057A000D96BE66A010EE66EE66E56EC25F0E55220
:1057B000E552E552200EE66E010EE66EE66A56EC04
:1057C00025F0E552E552E552DEEC24F004DE0ED180
:1057D000050EE66EE66A76EC37F0E552E552F3CF59
:1057E00000F0F4CF01F0F350F41035E1B10EE66EA5
:1057F0007E0EE66E040EE66E010EE66EDEEC26F020
:10580000E552E552E552E552040EE66E0E0EE66EE6
:10581000010EE66E56EC25F0E552E552E552200EFB
:10582000E66E0F0EE66E010EE66E56EC25F0E552C2
:10583000E552E552DBD0AFEC24F0050EE66EE66AE9
:1058400076EC37F0E552E552F3CF00F0F4CF01F0FB
:10585000F350F41006E0650E0501EC6FED6B44DDCE
:10586000C5D0A80EE66E7E0EE66E030EE66EE66A04
:10587000DEEC26F0E552E552E552E552050EE66E05
:105880000C0EE66EE66A56EC25F0E552E552E5525E
:10589000E66AE66A010EE66E56EC25F0E552E55240
:1058A000E552200EE66E010EE66EE66E56EC25F031
:1058B000E552E552E552020EE66EE66E010EE66E28
:1058C00056EC25F0E552E552E552020EE66E030E67
:1058D000E66E010EE66E56EC25F0E552E552E55215
:1058E000020EE66E040EE66E010EE66E56EC25F034
:1058F000E552E552E552030EE66E050EE66E010E28
:10590000E66E56EC25F0E552E552E552030EE66EE2
:10591000060EE66E010EE66E56EC25F0E552E552F7
:10592000E552030EE66E070EE66E010EE66E56ECCD
:1059300025F0E552E552E552030EE66E080EE66EDE
:10594000010EE66E56EC25F0E552E552E552030EE7
:10595000E66E090EE66E010EE66E56EC25F0E55297
:10596000E552E552030EE66E0A0EE66E010EE66E95
:1059700056EC25F0E552E552E552020EE66E0B0EAE
:10598000E66E010EE66E56EC25F0E552E552E55264
:10599000020EE66E0C0EE66E010EE66E56EC25F07B
:1059A000E552E552E552020EE66E0D0EE66E010E70
:1059B000E66E56EC25F0E552E552E552200EE66E15
:1059C0000E0EE66E010EE66E56EC25F0E552E5523F
:1059D000E552010EE66E0F0EE66E010EE66E56EC17
:1059E00025F0E552E552E552DEEC24F0020EE15CD2
:1059F00002E2E16AE552E16EE552E7CFD9FF12001B
:105A0000D9CFE6FFE1CFD9FF020EE1260A0E000151
:105A1000801901E1815102E154EF32F0090E801941
:105A200001E1815102E15EEF31F0080E801901E1E0
:105A3000815102E13BEF31F0070E801901E1815104
:105A400002E125EF31F0060E801901E1815101E1FB
:105A5000BAD3050E801901E1815101E1A3D3040EEF
:105A6000801901E1815101E11ED3030E801901E18A
:105A7000815101E1F8D1020E801901E1815101E16A
:105A800040D1010E801901E181510FE0805102E007
:105A90006DEF32F0815102E06DEF32F0010E806F58
:105AA000816BA8EC00F06DEF32F00D0EE66EE66A49
:105AB00076EC37F0E552E552F3CF00F0F4CF01F089
